:020000001F28B7
:100008007E14803120007F08F1002100111C162881
:100018002000111C1628C0240230F00070082000AF
:10002800D7001A288B1A0B1D1A28D424710820000F
:10003800FF007E10090020284B3084000030850026
:100048001330C8247E102000DA2C003400340D341C
:100058000034253400344434003469340034923494
:100068000034C0340034F2340034273401346034AE
:1000780001349B340134DA3401341B3402345E34E5
:100088000234A5340234ED34023438340334853470
:100098000334D43403342534043479340434CD346B
:1000A8000434243405347D340534D73405343334EA
:1000B800063490340634EF3406344F340734B13400
:1000C8000734143408346F340834DF3408344634C1
:1000D8000934AF34093419340A3484340A34F03416
:1000E8000A345D340B34CC340B343B340C34AC342C
:1000F8000C341D340D3490340D3403340E347834FC
:100108000E34ED340E3463340F34DA340F34523491
:100118001034CB34103445341134BF3411343B34EB
:100128001234B734123433341334B13413342F3413
:100138001434AD3414342D341534AD3415342D3411
:100148001634AF34163430341734B33417343634E5
:100158001834B93418343D341934C1341934463498
:100168001A34CB341A3451341B34D7341B345E342C
:100178001C34E5341C346C341D34F4341D347C34A4
:100188001E3405341F348D341F3416342034A03403
:10019800203429342134B33421343D342234C73453
:1001A800223452342334DD34233468342434F33491
:1001B80024347E34253409342634953426342034C6
:1001C8002734AC34273437342834C43428345034F2
:1001D8002934DC34293468342A34F4342A34803419
:1001E8002B340C342C3498342C3423342D34AF3441
:1001F8002D343B342E34C7342E3452342F34DE346D
:100208002F3469343034F4343034803431340A349F
:1002180032349534323420343334AA3433343434D9
:100228003434BE34343447343534D13435345A3424
:100238003634E33436346B343734F33437347B3480
:100248003834023439348934393410343A349634F1
:100258003A341C343B34A1343B3426343C34AA347D
:100268003C342E343D34B2343D34B7343E34393422
:100278003F34BA343F343A344034BA344034D63454
:100288004034B934413437344234B43442343134EC
:100298004334AD34433428344434A23444341C3415
:1002A8004534953445340D34463484344634FA3470
:1002B800463470344734E434473457344834CA3405
:1002C80048343C344934AC3449341C344A348A34D4
:1002D8004A34F7344A3463344B34CE344B343834EC
:1002E8004C34A1344C3408344D346E344D34D3344A
:1002F8004D3436344E3498344E34F8344E34573402
:100308004F34B5344F34103450346B345034C33414
:1003180050341A3451346F345134C2345134133494
:10032800523462345234AF345234FA345234423490
:10033800533489345334CC3453340E3454344C3419
:10034800543488345434BF345434F5345434273452
:100358005534553455344C345534A3345534C2349B
:100368005534DA345534E734553400346F340A34AC
:1003780076345E341B345D347D340E347F345F3420
:100388002000C8013708C7003608C6004B30860071
:10039800003087003A308400003085000630B8000D
:1003A80016001A00B80BD429513086000030870097
:1003B80040308400003085000630B80016001A006E
:1003C800B80BE2294708B0004608AF000A30B10070
:1003D8000030B2003A30272440302000B8003808F6
:1003E800F2003A3029233030F2000030F3009C2329
:1003F8002000DD01DD0AC801053048020318242A5F
:100408004808403E8600870101080319162A480853
:10041800403E860087010108B800B9013808F2009B
:100428003908192A0030F2000030F3009C2301300B
:100438002000B8003808C80705304802031C042A01
:1004480022000E160E1208002000AE002808AC008C
:100458002708AB002A08A1002908A0002C08A3003F
:100468002B08A200672320002108AC002008AB005D
:100478000130F9007908AE072B082C04031D2E2A39
:100488002E088600870181010130AE022A08F30098
:100498002908F2002808F5002708F400D12372087B
:1004A800F90079082000AD002A08A1002908A00059
:1004B8002808A3002708A200672320002108A80015
:1004C8002008A7000A302D02031C6E2A0730F90005
:1004D8007908AD073030F9007908AD072D08F90023
:1004E8002E0886008701790881000130AE022708AE
:1004F8002804031D4A2A0130F9007908AE070800CC
:10050800CC2A90302000D8000130D9000830C9002A
:100518004908DA00DB01DC01DC0A0230C9004908BD
:10052800D70008005908B0005808AF005A08C90099
:100538004908B100FD232000CA004A08DB005B0817
:100548005C060319C72A5B080319BD2AC9305B0278
:100558000318BD2A5B08C900CA01C935CA0D29306C
:100568004907840080304A3D8500003FB600013FBE
:10057800C02A00302000B600B700C42120005B0864
:10058800C9004908DC000330C9004908D700080041
:1005980020005708003A0319852A023A0319962AB7
:1005A800013A0319D82AD82A08002000AD01AE0163
:1005B8000230652473082000AE007208AD003230A6
:1005C800F4000030F5002E08F3002D08F2004A244C
:1005D80072082000A9007308AA000A30AA36A90CDC
:1005E800890BF22A2908AB002A08AC002C08F30072
:1005F8002B08F2006430F4000030F5004A24720839
:100608002000A9007308AA000A30A0000030A10049
:100618003230F4000030F5002E08F3002D08F20007
:100628004A24FF3072052000A20003307305A3009E
:100638006723200020082907AD0021082A3DAE00C5
:100648002E08A8002D08A7000800F400F501F601FF
:100658007208F3007308F7007408F3007308F800D1
:1006680078088600870101080319572B0130F30029
:100678007308F8070130F5070030F63D342B0130D8
:10068800F8027808860087010108F30077088600D9
:100698008701730881000130F3007308F707FF3002
:1006A800F507FF30F63D7608803AF3008030730294
:1006B800031D602B013075020318432B7708860051
:1006C8008701810108002000A501A6012008210456
:1006D8000319972BA401A40AA11B7C2B0130A03578
:1006E800A10D890B732B0130F8007808A407702B33
:1006F8000130A535A60D890B7D2B21082302031D8A
:10070800872B20082202031C8E2B2008A202210816
:10071800A33B25140130A136A00C890B8F2B013087
:10072800A402031D7C2B2608A1002508A0000800B0
:100738007208F4007408F6007608031DA52BF6016C
:10074800A72B2F30F602F70122008E120E12F701A6
:1007580008307702031808007608B93E8400813013
:100768000318013E85000008F4000130F500770AFF
:10077800BE2BF535890BBD2B750874050319C72BDE
:1007880020008E15C92B20008E1122008E168E1285
:100798000130F4007408F707AC2B720873040319CE
:1007A800F82BF701F70AF31BE32B0130F235F30DB1
:1007B800890BDA2B0130F6007608F707D72B730878
:1007C8007502031DE92B72087402031CEF2B7208D3
:1007D800F4027308F53B0130F336F20C890BF02B69
:1007E8000130F702031DE32B7508F3007408F200CB
:1007F80008002000B601B701B501D9222000280859
:10080800B7002708B6002F09B2003009B300B20AB2
:100818000319B30A36083207B6003708333DB70064
:100828003108B200B3013208A0003308A10037082C
:10083800A3003608A200672320002008B40034086B
:10084800B500350808002000B5003508B3003308A6
:10085800B400B01F3F2C2D30B30035088600870147
:10086800330881000130B3003308B507AF09B00978
:10087800AF0A0319B00A3008A8002F08A7003208E9
:10088800AA003108A900350828220800F601F70156
:10089800721C522C7408F6077508F73D0130F435C0
:1008A800F50D890B532C0130F336F20C890B582CBB
:1008B80072087304031D4C2C7708F3007608F200C5
:1008C8000800F5007508F400F40DF40D21001D086A
:1008D8007406833974069D001D140630F400F40B69
:1008E800732C000021009D149D18782C1C08F3001F
:1008F8001B08F200080022008C013F3021008C0008
:10090800173023008C0024008C01103022008E0048
:10091800073021008E00073023008E002100951734
:1009280022009D01080030302000980099010A300B
:100938009700FF3096001708FB001608FA00111000
:1009480021001114E424080021001508C0391338C7
:1009580095000630200095000630F2007208DE008F
:100968000B118B160800013021009D00D0309E002D
:100978009F019B019C010800200011107B08970033
:100988007A089600E7240800640080010131890B89
:10099800C92C0034DF247F24B7249724A824080016
:1009A8000B1120005E089500E8240800CE248B1760
:1009B8000B178422DD2C7A30210099009A01080057
:0A09C80020001814080008000800C1
:020000040001F9
:04000E0024FFFFDFED
:00000001FF
