:040000000128F42FB0
:100A7C0042256B254D2508007A30210099009A01FA
:100A8C000800FE0012001E00FE0B482D0034013041
:100A9C0021009D009E019F019B019C010800FC34DC
:100AAC006034DA34F2346634B634BE34E034FE34B6
:100ABC00F6343E250A302000B8000030B900390861
:100ACC00A7003808A600F8266A2D22008C013F30BA
:100ADC0021008C00173023008C0024008C01103076
:100AEC0022008E00073021008E00073023008E007C
:100AFC002100951722009D010800F401F501701CDE
:100B0C008B2D7208F4077308F53D0130F235F30DA7
:100B1C00890B8C2D0130F136F00C890B912D70085E
:100B2C007104031D852D7508F1007408F000080090
:100B3C000030FB000030FA000030F9000030F80003
:100B4C00701CB02D7408F8077508F93D7608FA3D4D
:100B5C007708FB3D0130F435F50DF60DF70D890BDB
:100B6C00B12D0130F336F20CF10CF00C890BB82DD1
:100B7C007308720471047004031DA62D7B08F30026
:100B8C007A08F2007908F1007808F0000800FB0000
:100B9C003A308600003087007130840000308500C8
:100BAC000A30F00016001A00F00BD82DFC01FD01E4
:100BBC0022008E120E12FC01FD017D08803AF0001D
:100BCC0080307002083003197C02031808007B087F
:100BDC00713E860087010130F0007C0AF62DF0355D
:100BEC00890BF52D700801050319FF2D20008E15BA
:100BFC00012E20008E1122008E168E120130FC0761
:100C0C000030FD3DE32DFA01F71F192EF409F5090B
:100C1C00F609F709F40A0319F50A0319F60A031978
:100C2C00F70AFA01FA0AF31F262EF009F109F20964
:100C3C00F309F00A0319F10A0319F20A0319F30A6A
:100C4C00730872047104700403195F2EF901F90A18
:100C5C00F31B3C2E0130F035F10DF20DF30D890B29
:100C6C00312E0130F8007808F9072E2E7308770220
:100C7C00031D4A2E72087602031D4A2E7108750256
:100C8C00031D4A2E70087402031C542E7008F402C3
:100C9C007108F53B7208F63B7308F73B0130F336ED
:100CAC00F20CF10CF00C890B552E0130F902031DDE
:100CBC003C2E7A0803196D2EF409F509F609F7098B
:100CCC00F40A0319F50A0319F60A0319F70A770847
:100CDC00F3007608F2007508F1007408F0000800C3
:100CEC002000A101F31F872EF009F109F209F30985
:100CFC00F00A0319F10A0319F20A0319F30AA10104
:100D0C00A10AF71F982EF409F509F609F709F40A58
:100D1C000319F50A0319F60A0319F70A0130F8004A
:100D2C007808A1060030A5000030A4000030A30014
:100D3C000030A20073087204710470040319E12ED0
:100D4C00A001A00AF31BB62E0130F035F10DF20D07
:100D5C00F30D890BAB2E0130F8007808A007A82EF4
:100D6C000130A235A30DA40DA50D890BB72E730868
:100D7C007702031DCB2E72087602031DCB2E710851
:100D8C007502031DCB2E70087402031CD62E70083E
:100D9C00F4027108F53B7208F63B7308F73B22141A
:100DAC000130F336F20CF10CF00C890BD72E01301C
:100DBC00A002031DB62E21080319EF2EA209A309C8
:100DCC00A409A509A20A0319A30A0319A40A031961
:100DDC00A50A2508F3002408F2002308F1002208D4
:100DEC00F000080020002708B3002608B200AE016E
:100DFC000030B7000030B6000030B5000130B40050
:100E0C00B1013208330403190F2F32033304031DCD
:100E1C00352F3208A8002808AD002D08CD25F02F5D
:100E2C000030F3000030F2000030F1000A30F00026
:100E3C0020003708F7003608F6003508F5003408AE
:100E4C00F4009E2573082000B7007208B6007108E4
:100E5C00B5007008B4000130A8002808B1072000C4
:100E6C003208A8003308A900AA01AB013708803A60
:100E7C00AC002B08803A2C02031D4E2F2A08360298
:100E8C00031D4E2F29083502031D4E2F280834024E
:100E9C00031C162F3708F3003608F2003508F10052
:100EAC003408F0003208F4003308F500F601F701BD
:100EBC00092673087204710470040319812F003021
:100ECC00F3000030F2000030F1000A30F000200096
:100EDC003708F7003608F6003508F5003408F4003A
:100EEC00762673082000B7007208B6007108B500AA
:100EFC007008B400862F01302000A8002808B10724
:100F0C00320833040319DF2F3708F3003608F200D8
:100F1C003508F1003408F0003208F4003308F5000D
:100F2C00F601F701762671082000B0007008AF00BA
:100F3C002F08CD2520002F0830040319BC2F3008B2
:100F4C00F1002F08F0003508F3003408F200832577
:100F5C0070092000A8007109A900A80A0319A90AA0
:100F6C0032082807B2003308293DB3003403350496
:100F7C00360437040319DC2F0030F3000030F20084
:100F8C000030F1000A30F0003708F7003608F600A0
:100F9C003508F5003408F400762673082000B700F5
:100FAC007208B6007108B5007008B4000130B102C7
:100FBC00862F02303102031CF02FAE0131082E02B5
:100FCC000318F02F0030CD2501302000A800280890
:100FDC00AE07E42F22000E160E12080055308400C6
:100FEC00853085003A308600003087000A3047256E
:040FFC0020005F2D45
:020000040001F9
:04000E00A4FFFFDF6D
:00000001FF
