:040000000128F82FAC
:1006FC00812306257F2B85239923902308007A30AC
:10070C00210099009A010800640080010131890BD5
:10071C008B2B0034013021009D00D0309E009F01B6
:10072C009B019C01080022008C013F3021008C00B1
:10073C00173023008C0024008C01103022008E0016
:10074C00073021008E00073023008E002100951702
:10075C0022009D010800F3007308F200F20DF20D67
:10076C0021001D087206833972069D001D14063087
:10077C00F200F20BBF2B000021009D149D18C42B1E
:10078C001C08F1001B08F0000800F401F501701CB6
:10079C00D32B7208F4077308F53D0130F235F30DD5
:1007AC00890BD42B0130F136F00C890BD92B700846
:1007BC007104031DCD2B7508F1007408F0000800BE
:1007CC002000AF002F08AD002D08AE00AA1FFE2B95
:1007DC002D30AD002F08860087012D0881000130D7
:1007EC00AD002D08AF07A909AA09A90A0319AA0A7D
:1007FC002A08A1002908A0002C08A3002B08A2009D
:10080C002F089D2508002000AF01B001AE014E2538
:10081C0020002108B0002008AF002809AB002909EE
:10082C00AC00AB0A0319AC0A2F082B07AF00300839
:10083C002C3DB0002A08AB00AC012B08F6002C08AC
:10084C00F7003008F9002F08F8005F247608200024
:10085C00AD002D08AE002E080800700871040319B5
:10086C005A2CF501F50AF11B452C0130F035F10D30
:10087C00890B3C2C0130F4007408F507392C7108F5
:10088C007302031D4B2C70087202031C512C700850
:10089C00F2027108F33B0130F136F00C890B522C4B
:1008AC000130F502031D452C7308F1007208F000AD
:1008BC000800FB01FC017608770403198E2CFD015E
:1008CC00FD0AF71B732C0130F635F70D890B6A2CDA
:1008DC000130FA007A08FD07672C0130FB35FC0D5E
:1008EC00890B742C77087902031D7E2C760878020C
:1008FC00031C852C7608F8027708F93B7B14013031
:10090C00F736F60C890B862C0130FD02031D732C77
:10091C007C08F7007B08F60008007008F2007208EB
:10092C00F4007408031D9C2CF4019E2C2F30F4024F
:10093C00F50122008E120E12F50108307502031813
:10094C0008007408ED3E840087300318013E8500D2
:10095C000008F2000130F300750AB52CF335890B51
:10096C00B42C730872050319BE2C20008E15C02CF4
:10097C0020008E1122008E168E120130F2007208A9
:10098C00F507A32CF200F301F4017008F1007108D3
:10099C00F5007208F1007108F600760886008701F0
:1009AC0001080319F62C0130F1007108F60701302B
:1009BC00F3070030F43DD32C0130F60276088600A4
:1009CC0087010108F1007508860087017108810014
:1009DC000130F1007108F507FF30F307FF30F43DEB
:1009EC007408803AF10080307102031DFF2C013035
:1009FC0073020318E22C7508860087018101080038
:100A0C00412D90302000D2000130D3000830C300BB
:100A1C004308D400D5010230C3004308D1000800BC
:100A2C005308A9005208A8005408C3004308AA00A0
:100A3C0009242000C4004408D500550803193B2D97
:100A4C00C930550203183B2D5508C300C401C335EA
:100A5C00C40D5D30430784008630443D8500003F63
:100A6C00B000013FB100F925080000302000B000B3
:100A7C00B100F925080020005108003A0319072D90
:100A8C00023A0319162D013A03194D2D4D2D08006C
:100A9C002000A601A7010230B12371082000A70095
:100AAC007008A6003230F2000030F3002708F10085
:100ABC002608F000CB2370082000A2007108A300C8
:100ACC000A30A336A20C890B672D2208A400230838
:100ADC00A5002508F1002408F0006430F200003075
:100AEC00F300CB2370082000A2007108A3000A3089
:100AFC00F6000030F7003230F2000030F300270827
:100B0C00F1002608F000CB23FF307005F80003300D
:100B1C007105F9005F24760820002207A6007708EB
:100B2C00233DA7002708A1002608A00008002000EC
:100B3C00A8002108A6002008A5002308F700220819
:100B4C00F6002608F9002508F8005F247708200035
:100B5C00A6007608A5000130A4002408A8072508E3
:100B6C002604031DA32D280886008701810101306E
:100B7C00A8022308F1002208F0002108F300200845
:100B8C00F200332470082000A4002408A7002308D6
:100B9C00F7002208F6002108F9002008F8005F246D
:100BAC0077082000A1007608A0000A302702031C59
:100BBC00E32D0730A4002408A7073030A400240834
:100BCC00A7072708A40028088600870124088100AD
:100BDC000130A80220082104031DBF2D0130A40000
:100BEC002408A80708002000C2013108C100300801
:100BFC00C00045308600003087003430840000305F
:100C0C0085000630B20016001A00B20B092E4B30CC
:100C1C008600003087003A308400003085000630B2
:100C2C00B20016001A00B20B172E4108AA00400899
:100C3C00A9000A30AB000030AC003430E6233A3067
:100C4C002000B2003208F0003430C8243030F000FC
:100C5C000030F10093242000D601D60AC2010530E1
:100C6C0042020318592E42083A3E860087010108B9
:100C7C0003194B2E42083A3E860087010108B20048
:100C8C00B3013208F00033084E2E0030F000003073
:100C9C00F100932401302000B2003208C207053065
:100CAC004202031C392E22000E160E1208000034CC
:100CBC0000340D34003425340034443400346934A9
:100CCC00003492340034C0340034F234003427340D
:100CDC000134603401349B340134DA3401341B3474
:100CEC0002345E340234A5340234ED340234383428
:100CFC00033485340334D434033425340434793444
:100D0C000434CD340434243405347D340534D734E0
:100D1C0005343334063490340634EF3406344F340F
:100D2C000734B1340734143408346F340834DF34E6
:100D3C00083446340934AF34093419340A34843451
:100D4C000A34F0340A345D340B34CC340B343B3479
:100D5C000C34AC340C341D340D3490340D34033459
:100D6C000E3478340E34ED340E3463340F34DA34FC
:100D7C000F3452341034CB34103445341134BF3466
:100D8C0011343B341234B734123433341334B13499
:100D9C0013342F341434AD3414342D341534AD34A1
:100DAC0015342D341634AF34163430341734B33480
:100DBC00173436341834B93418343D341934C1343A
:100DCC00193446341A34CB341A3451341B34D734D6
:100DDC001B345E341C34E5341C346C341D34F43454
:100DEC001D347C341E3405341F348D341F341634BA
:100DFC002034A034203429342134B33421343D340C
:100E0C002234C734223452342334DD34233468344E
:100E1C002434F33424347E34253409342634953484
:100E2C00263420342734AC34273437342834C434B3
:100E3C00283450342934DC34293468342A34F434DA
:100E4C002A3480342B340C342C3498342C34233402
:100E5C002D34AF342D343B342E34C7342E3452342D
:100E6C002F34DE342F3469343034F434303480345D
:100E7C0031340A3432349534323420343334AA3495
:100E8C00333434343434BE34343447343534D134DC
:100E9C0035345A343634E33436346B343734F33433
:100EAC0037347B343834023439348934393410349F
:100EBC003A3496343A341C343B34A1343B34263423
:100ECC003C34AA343C342E343D34B2343D34B73443
:100EDC003E3439343F34BA343F343A344034BA3483
:100EEC004034D6344034B934413437344234B434D9
:100EFC00423431344334AD34433428344434A23492
:100F0C0044341C344534953445340D3446348434DF
:100F1C004634FA34463470344734E4344734573466
:100F2C004834CA3448343C344934AC3449341C3425
:100F3C004A348A344A34F7344A3463344B34CE342A
:100F4C004B3438344C34A1344C3408344D346E3476
:100F5C004D34D3344D3436344E3498344E34F83416
:100F6C004E3457344F34B5344F34103450346B3412
:100F7C005034C33450341A3451346F345134C23475
:100F8C0051341334523462345234AF345234FA3450
:100F9C0052344234533489345334CC3453340E34B5
:100FAC0054344C34543488345434BF345434F534BD
:100FBC00543427345534553455344C345534A334C7
:100FCC005534C2345534DA345534E734553400349E
:100FDC006F340A3476345E341B345D347D340E3415
:100FEC007F345F34453084000030850012308A2312
:040FFC0020007E2B28
:020000040001F9
:04000E00A4FFFFDF6D
:00000001FF
