:040000000128F82FAC
:100B26009625A12508007A30210099009A0108002F
:100B3600640080010131890B9C2D003422008C0158
:100B46003F3021008C00173023008C0024008C01DC
:100B5600103022008E00073021008E00073023005F
:100B66008E002100951722009D010800932517305D
:100B76002000BD003D08BF0020003F08BD00BE01AB
:100B8600BD35BE0D87303D07840087303E3D85006C
:100B9600003FAA00013FAB002327BF2D2000A9007C
:100BA6002908FD007D08A800A51FE92D2D30FD00B0
:100BB6002908860087017D0881000130FD007D0837
:100BC600A907A409A509A40A0319A50A2508F90075
:100BD6002408F8002708FB002608FA002908C7267B
:100BE60008007008710403191B2EF501F50AF11BA4
:100BF600062E0130F035F10D890BFD2D0130F40084
:100C06007408F507FA2D71087302031D0C2E70087F
:100C16007202031C122E7008F2027108F33B0130B7
:100C2600F136F00C890B132E0130F502031D062E4A
:100C36007308F1007208F0000800F501F60170086B
:100C4600710403194F2EF701F70AF11B342E0130F8
:100C5600F035F10D890B2B2E0130F4007408F707DF
:100C6600282E0130F535F60D890B352E71087302E5
:100C7600031D3F2E70087202031C462E7008F202F6
:100C86007108F33B75140130F136F00C890B472ED1
:100C96000130F702031D342E7608F1007508F000C6
:100CA60008007008F2007208F4007408031D5D2E37
:100CB600F4015F2E2F30F402F50122008E120E127F
:100CC600F50108307502031808007408ED3E84002B
:100CD60087300318013E85000008F2000130F3005A
:100CE600750A762EF335890B752E7308720503196E
:100CF6007F2E20008E15812E20008E1122008E164A
:100D06008E120130F2007208F507642EF200F3012C
:100D1600F4017008F1007108F5007208F10071081D
:100D2600F60076088600870101080319B72E013000
:100D3600F1007108F6070130F3070030F43D942EF8
:100D46000130F6027608860087010108F100750871
:100D560086008701710881000130F1007108F507EE
:100D6600FF30F307FF30F43D7408803AF10080301D
:100D76007102031DC02E013073020318A32E7508DD
:100D860086008701810108002000A3007908A100E0
:100D96007808A0007B08F1007A08F0002108F3002B
:100DA6002008F200202671082000A1007008A0008B
:100DB6000130FC007C08A30720082104031DCD2E6A
:100DC60023088600870181010130A3027B08F10018
:100DD6007A08F0007908F3007808F200F425700824
:100DE600FC007C082000A2007B08F1007A08F000D5
:100DF6007908F3007808F20020267108F9007008D7
:100E0600F8000A3020002202031C0D2F0730FC00D8
:100E16007C08A2073030FC007C08A2072208FC00F0
:100E26002308860087017C0881000130A302780828
:100E36007904031DE92E0130FC007C08A307080095
:100E46002000BC012B08BB002A08BA0040308600EF
:100E5600003087002E308400003085000630AC005C
:100E660016001A00AC0B332F463086000030870080
:100E760034308400003085000630AC0016001A00BD
:100E8600AC0B412F3B08A5003A08A4000A30A60087
:100E96000030A7002E30D12534302000AC002C08BD
:100EA600F0002E3089263030F0000030F100542654
:100EB6002000CC01CC0ABC0105303C020318832F6C
:100EC6003C08343E8600870101080319752F3C084B
:100ED600343E860087010108AC00AD012C08F00005
:100EE6002D08782F0030F0000030F1005426013034
:100EF6002000AC002C08BC0705303C02031C632F05
:100F060022000E160E120800003400340D34003490
:100F160025340034443400346934003492340034C7
:100F2600C0340034F23400342734013460340134E0
:100F36009B340134DA3401341B3402345E34023417
:100F4600A5340234ED3402343834033485340334A2
:100F5600D43403342534043479340434CD3404349D
:100F6600243405347D340534D7340534333406341B
:100F760090340634EF3406344F340734B134073432
:100F8600143408346F340834DF34083446340934F2
:100F9600AF34093419340A3484340A34F0340A3448
:100FA6005D340B34CC340B343B340C34AC340C345D
:100FB6001D340D3490340D3403340E3478340E342D
:100FC600ED340E3463340F34DA340F3452341034C3
:100FD600CB34103400346F340A3476345E341B3428
:100FE6005D347D340E347F345F344030840000300D
:0A0FF60085000D309B252000B92D69
:020000040001F9
:04000E00A4FFFFDF6D
:00000001FF
