:020000040000fa
:080000000002040000000000f2
:020000040000fa
:100008009a0200009a0200009a0200009a02000078
:100018009a0200009a0200009a0200009a02000068
:100028009a0200009a0200009a0200009a02000058
:100038009a0200009a0200009a020000c002000022
:100048009a0200009a0200009a0200009a02000038
:100058009a0200009a0200009a0200009a02000028
:100068009a0200009a0200009a020000a409000007
:100078009a0200009a0200009a0200009a02000008
:100088009a0200009a0200009a0200009a020000f8
:100098009a0200009a0200009a0200009a020000e8
:1000a8009a0200009a0200009a0200009a020000d8
:1000b8009a0200009a0200009a0200009a020000c8
:1000c8009a0200009a0200009a0200009a020000b8
:1000d8009a0200009a0200009a0200009a020000a8
:1000e8009a0200009a0200009a0200009a02000098
:1000f8009a0200009a0200009a0200009a02000088
:100108009a0200009a0200009a0200009a02000077
:100118009a0200009a0200009a0200009a02000067
:100128009a0200009a0200009a0200009a02000057
:100138009a0200009a0200009a0200009a02000047
:100148009a0200009a0200009a0200009a02000037
:100158009a0200009a0200009a0200009a02000027
:100168009a0200009a0200009a0200009a02000017
:100178009a0200009a0200009a0200009a02000007
:100188009a0200009a0200009a0200009a020000f7
:100198009a0200009a0200009a0200009a020000e7
:1001a8009a0200009a0200009a0200009a020000d7
:1001b8009a0200009a0200009a0200009a020000c7
:1001c8009a0200009a0200009a0200009a020000b7
:1001d8009a0200009a0200009a0200009a020000a7
:1001e8009a0200009a0200009a0200009a02000097
:0801f8009a0200009a020000c7
:020000040000fa
:100208009a0200009a0200009a0200009a02000076
:100218009a0200009a0200009a0200009a02000066
:100228009a0200009a0200009a0200009a02000056
:100238009a0200009a0200009a020000c002000020
:100248009a0200009a0200009a0200009a02000036
:100258009a0200009a0200009a0200009a02000026
:100268009a0200009a0200009a020000a409000005
:100278009a0200009a0200009a0200009a02000006
:100288009a0200009a0200009a0200009a020000f6
:100298009a0200009a0200009a0200009a020000e6
:1002a8009a0200009a0200009a0200009a020000d6
:1002b8009a0200009a0200009a0200009a020000c6
:1002c8009a0200009a0200009a0200009a020000b6
:1002d8009a0200009a0200009a0200009a020000a6
:1002e8009a0200009a0200009a0200009a02000096
:1002f8009a0200009a0200009a0200009a02000086
:100308009a0200009a0200009a0200009a02000075
:100318009a0200009a0200009a0200009a02000065
:100328009a0200009a0200009a0200009a02000055
:100338009a0200009a0200009a0200009a02000045
:100348009a0200009a0200009a0200009a02000035
:100358009a0200009a0200009a0200009a02000025
:100368009a0200009a0200009a0200009a02000015
:100378009a0200009a0200009a0200009a02000005
:100388009a0200009a0200009a0200009a020000f5
:100398009a0200009a0200009a0200009a020000e5
:1003a8009a0200009a0200009a0200009a020000d5
:1003b8009a0200009a0200009a0200009a020000c5
:1003c8009a0200009a0200009a0200009a020000b5
:1003d8009a0200009a0200009a0200009a020000a5
:1003e8009a0200009a0200009a0200009a02000095
:0803f8009a0200009a020000c5
:020000040000fa
:100400008f8220000e7f22000e0188000000000075
:10041000000020000000e000020032000001200087
:10042000200288000c000700c09b20000100200073
:1004300011000700000020000000e0000200320070
:100440000000020000000000f208020000000000ae
:100450000040da000000fe004440a9000000200037
:100460000000e0000300320000002000a00188002e
:100470004440a80000000600910188008000780038
:100480000000eb0015003700e280400032a0b4000d
:100490009101ba00e280400032a0b4009102ba009b
:1004a000e280400032a0b4000002eb00472bde00e7
:1004b000f507b200602ce10004003a000059eb009f
:1004c0008301e900fdff3e00040037006128e100e0
:1004d000010032000082eb00040007001101ba00a5
:1004e0000200e000e8ff3a00000006003159ba00bf
:1004f0008301e9000c0032002159ba008301e900b0
:10050000080032000400e00003003a00e2804000ee
:1005100032a0b400f5ff370011d9ba008301e90019
:10052000faff3a008100e800e180400032a0b40008
:0c053000000006000040da000000fe00a1
:020000040000fa
:10053c000000fa0000002800800888000621ef0067
:10054c0000fa20006008880084e0a90094e0a8006c
:10055c00608220008040eb00014878000080fa00a7
:10056c00000006000000fa00f1ff07000080fa000e
:10057c0000000600809fbe000000fa006040800072
:10058c000000e80060408800004180000000e000ae
:10059c0003003200004180000000e90000418800a7
:1005ac00104180000000e000030032001041800088
:1005bc000000e90010418800204180000000e000ac
:1005cc0003003200204180000000e9002041880037
:1005dc0070822000104078008040e800708220007b
:1005ec00014878006082200011c0b30001487800f7
:1005fc0084e0a9000080fa004f00be000040060015
:10060c000200fa00000f78009e0078006108880054
:10061c00608220008040eb00014878000080fa00e6
:10062c00000006000200fa00000f78001e0078009f
:10063c00f3ff07000080fa00000006000000fa003b
:10064c00600880000080fa00000006000000fa003c
:10065c00faff07000080fa00000006000200fa0012
:10066c00000f78009e00780031088800608220001e
:10067c008040eb00014878000080fa000000060082
:10068c000200fa00000f78001e007800f3ff07004c
:10069c000080fa00000006000000fa00300880001c
:1006ac000080fa00000006000000fa00faff0700c4
:1006bc000080fa00000006000000fa000080fa003a
:1006cc00000006000000fa00608220008040eb0071
:1006dc000148780094e0a80011e1a8000080fa001d
:1006ec00000006000000fa00f6ff07000080fa0088
:1006fc00000006000000fa0011e1a90094e0a90036
:10070c000080fa00000006000000fa00f9ff070064
:10071c000080fa00000006000200fa00608220004f
:10072c00104f78001e4078000004e00003003200f7
:10073c00608220008040eb00014878001e40780069
:10074c000080fa00000006000000fa00f2ff07002b
:10075c000080fa00000006000000fa007082200001
:10076c00104078000080fa00000006000000fa003b
:10077c00f9ff07000080fa00000006000000fa00f4
:10078c00708220008040eb00014878000080fa0065
:10079c00000006000000fa00f8ff07000080fa00d5
:1007ac00000006000000fa0030408000e20f50000c
:1007bc001c003200e20f500005003e000000e0007b
:1007cc000a003200e10f50000e0032006c003700be
:1007dc00e40f500029003200e40f50001c003900d7
:1007ec00e50f50005800320065003700cc22a800fd
:1007fc00d522a800cd82a80010002000304088002f
:10080c005f0037005116800000022000008060005d
:10081c000000e00055003a00200020003040880025
:10082c0057003700cc22a900c542a800cda2a800d1
:10083c009116800000022000008060000000e000a3
:10084c004c003a0030002000304088004c0037004b
:10085c00cdc2a800a00f200051020700cdc2a900f4
:10086c00c4e2a800cc82a900d482a9000848a80040
:10087c004000200030408800410037000ac8bf000b
:10088c00ee4f500002003a00c482a900d462a900c5
:10089c00a18020009140780060c3b30080cf50004d
:1008ac0002003a00cc82a800d482a800a1802000cb
:1008bc0091407800c0c4b30080cf500002003a00d1
:1008cc00c4e2a900c8000700a18020009140780074
:1008dc00e0c4b30080cf500001003a00cda2a900c3
:1008ec00a18020009140780020c5b30080cf50003b
:1008fc0002003a00d522a900d502a800a180200050
:10090c009140780060c5b30080cf500003003a00de
:10091c00c482a800d462a80092000700a180200025
:10092c009140780020c6b30080cf500013003a00ed
:10093c00c542a9000848a9000a68ef005000200031
:10094c00304088000e003700cde2a800803e200029
:10095c0013020700cde2a900cd82a900d502a9009f
:10096c000628ef0000000000050037000000000022
:10097c0003003700000000000100370000000000f9
:10098c000080fa00000006000000fa000040800021
:10099c00e20f50001c003200e20f500005003e0038
:1009ac000000e0000a003200e10f50000e0032009f
:1009bc006a003700e40f500029003200e40f5000a9
:1009cc001c003900e50f5000560032006300370060
:1009dc00cc22a800d522a800cd82a80010002000af
:1009ec00004088005d003700511680000002200096
:1009fc00008060000000e00053003a00200020005e
:100a0c000040880055003700cc22a900c542a80040
:100a1c00cda2a8009116800000022000008060008a
:100a2c000000e0004a003a0030002000004088003e
:100a3c004a003700cdc2a800a00f2000d801070043
:100a4c00cdc2a900c4e2a800cc82a900d482a9001e
:100a5c000208a80040002000004088003f0037003a
:100a6c0003c8bf00ee4f500002003a00c482a90038
:100a7c00d462a900318020009140780060c3b3009b
:100a8c0080cf500002003a00cc82a800d482a8008b
:100a9c003180200091407800c0c4b30080cf50005a
:100aac0001003a00c4e2a900318020009140780096
:100abc00e0c4b30080cf500001003a00cda2a900e1
:100acc00318020009140780020c5b30080cf5000c9
:100adc0002003a00d522a900d502a80031802000de
:100aec009140780060c5b30080cf500002003a00fe
:100afc00c482a800d462a800318020009140780004
:100b0c0020c6b30080cf500013003a00c542a900a4
:100b1c000208a9000368ef00500020000040880084
:100b2c000e003700cde2a800803e20009c0107009b
:100b3c00cde2a900cd82a900d502a9000028ef00c2
:100b4c000000000005003700000000000300370023
:100b5c000000000001003700000000000080fa00d7
:100b6c00000006000000fa001828ef0017003700fc
:100b7c0060002000d04088003c000700500020009e
:100b8c0087010700a0002000d04088003700070034
:100b9c00500020008201070090002000d040880007
:100bac0032000700500020007d010700500020009b
:100bbc00d04088002d00070050002000780107006d
:100bcc00c04080000000e800c0408800c0408000a9
:100bdc00e80f5000e6ff34001a28ef00230007004e
:100bec000080fa00000006000000fa001828ef0050
:100bfc001700370050002000d04088001b00070071
:100c0c00001920006601070090002000d0408800e9
:100c1c00160007000019200061010700a000200049
:100c2c00d040880011000700001920005c0107006b
:100c3c0060002000d04088000c0007000019200044
:100c4c0057010700c04080000000e800c040880049
:100c5c00c0408000e80f5000e6ff34001a28ef0077
:100c6c00020007000080fa00000006000000fa00f5
:100c7c00d0408000614060000080fb00610060009b
:100c8c004600dd00a2168000f1fb2f008100610000
:100c9c0001007000a0168800d04080000000d10038
:100cac00614060000080fb00610060004900dd00d5
:100cbc0062168000f1df2f008100610001007000de
:100ccc0060168800d04080004200de006140600069
:100cdc000080fb00610060004800dd0062168000af
:100cec00f1ef2f0081006100010070006016880098
:100cfc00d04080004300de00614060000080fb00bb
:100d0c00610060004700dd0062168000f1f72f00e3
:100d1c008100610001007000601688000080fa00fc
:100d2c00000006000000fa00f0408000e30f5000c5
:100d3c0034003200e30f500005003e00e10f50007c
:100d4c0017003200e10f500027003e00070037006b
:100d5c00e50f500042003200e50f50003900390019
:100d6c00e60f50004900320059003700cc22a80091
:100d7c00cd82a800d522a800d502a800d4e2a800f4
:100d8c009116800000022000008060000000e0004e
:100d9c004a003a0010002000f04088004c00370058
:100dac00cc22a900cdc2a800cda2a800a00f200083
:100dbc00fb000700cdc2a900c4e2a800c482a900b0
:100dcc00d462a900c522a900401f2000f40007002e
:100ddc00c522a800401f2000f100070020002000c1
:100dec00f04088003a003700101680006100600067
:100dfc000000e0003300320030002000f04088009a
:100e0c0033003700c482a800d462a800803e2000c2
:100e1c00e3000700cc82a900d482a900cc02a9006f
:100e2c00401f2000de000700cc02a800401f20005d
:100e3c00db0007006cff070040002000f04088003a
:100e4c002300370010168000620060000000e000f4
:100e5c001e00320050002000f04088001c003700bb
:100e6c00cd82a900c4e2a900d522a900d502a9000f
:100e7c00d4e2a900cda2a90010002000c8000700f0
:100e8c0060002000f040880011003700cc82a800e0
:100e9c00d482a80000772100c1000700cde2a80091
:100eac00803e2000be000700cde2a9002dff070008
:100ebc001e28ef00000000000500370000000000b5
:100ecc0003003700000000000100370000000000a4
:100edc000080fa00000006000000fa00e0408000ec
:100eec00e30f500034003200e30f500005003e00c9
:100efc00e10f500017003200e10f500027003e00b8
:100f0c0007003700e50f500041003200e50f50009c
:100f1c0038003900e60f5000480032005700370007
:100f2c00cc22a800cd82a800d522a800d502a8000a
:100f3c00d4e2a8009116800000022000008060001e
:100f4c000000e00048003a0010002000e04088005b
:100f5c004a003700cc22a900cdc2a800cda2a8001f
:100f6c00a00f20008e000700cdc2a900c4e2a8008b
:100f7c00c482a900d462a900c522a900401f200088
:100f8c0087000700c522a800401f2000840007002e
:100f9c0020002000e0408800380037001016800048
:100fac00610060000000e0003100320030002000e1
:100fbc00e040880031003700c482a800d462a80049
:100fcc004019210076000700cc82a900d482a90028
:100fdc00cc02a900401f200071000700cc02a80021
:100fec00401f20006e00070040002000e0408800f9
:100ffc002200370010168000620060000000e00044
:10100c001d00320050002000e04088001b0037001b
:10101c00cd82a900c4e2a900d522a900d502a9005d
:10102c00d4e2a900cda2a90080bb20005c0007007f
:10103c0060002000e040880010003700cc82a8003f
:10104c00d482a8000077210055000700cde2a8004b
:10105c00803e200052000700cde2a9001c28ef00c2
:10106c0000000000050037000000000003003700fe
:10107c000000000001003700000000000080fa00b2
:10108c00000006000000fa0061408000703e200065
:10109c00808f5000270036000c28ef007040800035
:1010ac000000e80070408800904080000000e800dc
:1010bc009040880010408000610060000000e0005b
:1010cc000300320003c8bf000040e80003e8b7008b
:1010dc0040408000640060000000e000030032002b
:1010ec000ac8bf000040e8000ae8b7007140800061
:1010fc00b0032000808f5000040036000e28ef0053
:10110c00804080000000e800804088008140800022
:10111c00b0032000808f5000010036001028ef0033
:10112c009140800020032000808f50000100360089
:10113c001228ef000080fa00000006000400fa00fc
:10114c00004f7800110798001e80fb0080004000c3
:10115c0000822000008040009e0090000108780072
:10116c000080fa00000006000200fa00004f780030
:10117c001e80fb00800040000082200000804000a8
:10118c00100078000000e00002003a0010c0b3002c
:10119c00010037000040eb000080fa000000060060
:1011ac000400fa00100798009e009000010f7800d0
:1011bc009e00780020c0b300e0ff07000000000094
:1011cc0020c0b300e8ff07000004e000fcff320081
:1011dc000080fa00000006000000fa0090000700f2
:1011ec0090168000610060000000e00002003a00f0
:1011fc001428ef0014003700901680006200600085
:10120c000000e00003003a0010002000a04088001d
:10121c000d00370050168000680060000000e000f0
:10122c0003003a0020002000a04088000600370090
:10123c0050168000640060000000e00002003a00dc
:10124c0030002000a0408800c522a800cc02a800d5
:10125c0001003700000000008aff0700a04080005a
:10126c000000e00006003a00c502a900c462a80014
:10127c00c442a800d442a80017ff0700f6ff3700ad
:10128c00a0408000e10f500006003a00c502a80003
:10129c00c462a900c442a800d442a800a1fe070061
:1012ac00edff3700a0408000e20f500006003a002e
:1012bc00c502a800c462a800c442a900d442a80078
:1012cc00b1fd0700e4ff3700a0408000e30f5000a1
:1012dc00e0ff3a00c502a800c462a800c442a800fe
:1012ec00d442a9002ffd0700dbff37000000fa00f5
:1012fc00401680004600de00614060000004a00043
:10130c00614060000080fb00610060004600dd0071
:10131c0042168000f1fb2f0081006100010070007b
:10132c00401688006300a8006b00a9008660a90025
:10133c009660a8000080fa0000000600809fbe00a6
:10134c000000fa008660a9005116800000042000fd
:10135c00008060000000e00001003a001668ef0019
:0c136c000080fa004f00be0000400600a8
:020000040000fa
:101378001808000004000000000000001c0800001d
:1013880002000000000000001e080000020000002b
:101398000000000000080000060000000000000037
:1013a80006080000060000000000000026080000f3
:1013b80002000000000000002008000006000000f5
:1013c800000000000c0800000600000000000000fb
:1013d80012080000060000000000000000000000e5
:020000040000fa
:1013e8000000fa00c01120002016880030002000fc
:1013f800001688000001200060168800c0c6200082
:1014080040168800c0012000a01688003002200085
:1014180080168800f0ff2100601988000080fa001b
:10142800000006000000fa0005000700ecff0700b6
:10143800080007003ffc07000080fa0000000600d3
:101448000000fa0000002300203a88000080fa001b
:10145800000006000000fa003005800000c0a0006f
:1014680000d0a10000e0a10030058800a0ff07001f
:081478000080fa0000000600ec
:020000040000fa
:020000040001f9
:0457f8009fe8000026
:020000040000fa
:020000040001f9
:0457fc007f3e0000ec
:00000001FF
