:020000040000fa
:080000000002040000000000f2
:020000040000fa
:100008009a0200009a0200009a0200009a02000078
:100018009a0200009a0200009a0200009a02000068
:100028009a0200009a0200009a0200009a02000058
:100038009a0200009a0200009a020000c202000020
:100048009a0200009a0200009a0200009a02000038
:100058009a0200009a0200009a0200009a02000028
:100068009a0200009a0200009a0200009a02000018
:100078009a0200009a0200009a0200009a02000008
:100088009a0200009a0200009a0200009a020000f8
:100098009a0200009a0200009a0200009a020000e8
:1000a8009a0200009a0200009a0200009a020000d8
:1000b8009a0200009a0200009a0200009a020000c8
:1000c8009a0200009a0200009a0200009a020000b8
:1000d8009a0200009a0200009a0200009a020000a8
:1000e8009a0200009a0200009a0200009a02000098
:1000f8009a0200009a0200009a0200009a02000088
:100108009a0200009a0200009a0200009a02000077
:100118009a0200009a0200009a0200009a02000067
:100128009a0200009a0200009a0200009a02000057
:100138009a0200009a0200009a0200009a02000047
:100148009a0200009a0200009a0200009a02000037
:100158009a0200009a0200009a0200009a02000027
:100168009a0200009a0200009a0200009a02000017
:100178009a0200009a0200009a0200009a02000007
:100188009a0200009a0200009a0200009a020000f7
:100198009a0200009a0200009a0200009a020000e7
:1001a8009a0200009a0200009a0200009a020000d7
:1001b8009a0200009a0200009a0200009a020000c7
:1001c8009a0200009a0200009a0200009a020000b7
:1001d8009a0200009a0200009a0200009a020000a7
:1001e8009a0200009a0200009a0200009a02000097
:0801f8009a0200009a020000c7
:020000040000fa
:100208009a0200009a0200009a0200009a02000076
:100218009a0200009a0200009a0200009a02000066
:100228009a0200009a0200009a0200009a02000056
:100238009a0200009a0200009a020000c20200001e
:100248009a0200009a0200009a0200009a02000036
:100258009a0200009a0200009a0200009a02000026
:100268009a0200009a0200009a0200009a02000016
:100278009a0200009a0200009a0200009a02000006
:100288009a0200009a0200009a0200009a020000f6
:100298009a0200009a0200009a0200009a020000e6
:1002a8009a0200009a0200009a0200009a020000d6
:1002b8009a0200009a0200009a0200009a020000c6
:1002c8009a0200009a0200009a0200009a020000b6
:1002d8009a0200009a0200009a0200009a020000a6
:1002e8009a0200009a0200009a0200009a02000096
:1002f8009a0200009a0200009a0200009a02000086
:100308009a0200009a0200009a0200009a02000075
:100318009a0200009a0200009a0200009a02000065
:100328009a0200009a0200009a0200009a02000055
:100338009a0200009a0200009a0200009a02000045
:100348009a0200009a0200009a0200009a02000035
:100358009a0200009a0200009a0200009a02000025
:100368009a0200009a0200009a0200009a02000015
:100378009a0200009a0200009a0200009a02000005
:100388009a0200009a0200009a0200009a020000f5
:100398009a0200009a0200009a0200009a020000e5
:1003a8009a0200009a0200009a0200009a020000d5
:1003b8009a0200009a0200009a0200009a020000c5
:1003c8009a0200009a0200009a0200009a020000b5
:1003d8009a0200009a0200009a0200009a020000a5
:1003e8009a0200009a0200009a0200009a02000095
:0803f8009a0200009a020000c5
:020000040000fa
:10040000af8120000e7f22000e0188000000000056
:10041000000020000000e000020032000001200087
:10042000200288000c000700c06f2000010020009f
:1004300011000700000020000000e0000200320070
:100440000000020000000000a606020000000000fc
:100450000040da000000fe004440a9000000200037
:100460000000e0000300320000002000a00188002e
:100470004440a80000000600910188008000780038
:100480000000eb0015003700e280400032a0b4000d
:100490009101ba00e280400032a0b4009102ba009b
:1004a000e280400032a0b4000002eb00472bde00e7
:1004b000f507b200602ce10004003a000059eb009f
:1004c0008301e900fdff3e00040037006128e100e0
:1004d000010032000082eb00040007001101ba00a5
:1004e0000200e000e8ff3a00000006003159ba00bf
:1004f0008301e9000c0032002159ba008301e900b0
:10050000080032000400e00003003a00e2804000ee
:1005100032a0b400f5ff370011d9ba008301e90019
:10052000faff3a008100e800e180400032a0b40008
:0c053000000006000040da000000fe00a1
:020000040000fa
:10053c000000fa0004002800840888000002eb0088
:10054c003408880004fa20006408880084e0a900bc
:10055c0094e0a8000042eb000400780016e8b70015
:10056c000080fa00000006000000fa00f0ff07000f
:10057c000080fa0000000600801f7800841f7800bd
:10058c000000fa00044080000402e80004408800e7
:10059c0014408000e00f5200030032001440800031
:1005ac000402e9001440880024408000e00f52004f
:1005bc0003003200244080000402e900244088003b
:1005cc0034408000e00f52000300320034408000c1
:1005dc000402e90034408800748120001442780041
:1005ec000442e8000400780017e8b70014c0b30018
:1005fc000400780016e8b70084e0a9000080fa0037
:10060c004f0278004f007800004006000200fa000c
:10061c00000f78001e027800640888000042eb008e
:10062c000400780016e8b7000080fa00000006000d
:10063c000200fa00000f78001e007800f3ff07009c
:10064c000080fa00000006000000fa006408800038
:10065c00040078000080fa00000006000000fa0098
:10066c00f9ff070000027800040078000080fa000f
:10067c00000006000200fa00000f78001e0278004d
:10068c00340888000042eb000400780016e8b7003c
:10069c000080fa00000006000200fa00000f78004b
:1006ac001e007800f3ff07000080fa00000006002f
:1006bc000000fa0034088000040078000080fa0082
:1006cc00000006000000fa00f9ff070000027800a5
:1006dc00040078000080fa00000006000000fa0018
:1006ec000080fa00000006000000fa000042eb0057
:1006fc000400780016e8b70094e0a80011e1a80007
:10070c000080fa00000006000000fa00f6ff070067
:10071c000080fa00000006000000fa0011e1a900b8
:10072c0094e0a9000080fa00000006000000fa0026
:10073c00f9ff07000080fa00000006000200fa0032
:10074c006481200014427800044f78001e42780027
:10075c00e04f5200030032000042eb00040078002e
:10076c0016e8b7001e427800044078000080fa00ba
:10077c00000006000000fa00f0ff070000427800bd
:10078c00044078000080fa00000006000000fa0027
:10079c007481200014427800044078000080fa0034
:1007ac00000006000000fa00f8ff07000042780085
:1007bc00044078000080fa00000006000000fa00f7
:1007cc000042eb000400780017e8b7000080fa0044
:1007dc00000006000000fa00f8ff07000080fa0095
:1007ec00000006000000fa000002eb0064408800e4
:1007fc00170037006400200074408800390007009f
:10080c0020032000f5000700a4002000744088009d
:10081c003400070020032000f000070094002000a3
:10082c00744088002f00070020032000eb00070015
:10083c0054002000744088002a0007002003200088
:10084c00e6000700644080000402e8006440880071
:10085c0064408000e90f5200e6ff34000080fa008b
:10086c00000006000000fa000002eb006440880063
:10087c00170037005400200074408800190007004e
:10088c0020032000d500070094002000744088004d
:10089c001400070020032000d0000700a400200053
:1008ac00744088000f00070020032000cb000700d5
:1008bc0064002000744088000a0007002003200018
:1008cc00c6000700644080000402e8006440880011
:1008dc0064408000e90f5200e6ff34000080fa000b
:1008ec00000006000000fa007440800061426200c3
:1008fc000482fb00610262004622dd00a616800025
:10090c00f5fb2f008502630005027200a416880017
:10091c00744080000402d100614262000482fb003a
:10092c00610262004922dd0066168000f5df2f00af
:10093c008502630005027200641688007440800012
:10094c004222de00614262000482fb00610262000e
:10095c004822dd0066168000f5ef2f00850263004b
:10096c000502720064168800744080004322de0089
:10097c00614262000482fb00610262004722dd00da
:10098c0066168000f5f72f008502630005027200e1
:10099c00641688000080fa00000006000000fa00cf
:1009ac00c440800005002000460020000700200005
:1009bc00860f5200878f5a0046003e0004600100eb
:1009cc00040037000c0037001300370028003700f4
:1009dc0034003700c482a900cd82a800d522a8001b
:1009ec00d502a800d4e2a8007eff07001400200066
:1009fc00c4408800370037009516800004022000a0
:100a0c0004826200e00f520031003a002400200002
:100a1c00c44088002f003700c482a800cdc2a800b3
:100a2c00cda2a800a00f20006c000700cdc2a90029
:100a3c00c4e2a800cc22a800d462a9000071220054
:100a4c0066000700cc22a900d462a800803e2000da
:100a5c0062000700cde2a800d482a9000071220038
:100a6c005e00070034002000c440880019003700e5
:100a7c00cd82a900d522a900d502a900d4e2a900f3
:100a8c00c4e2a900cda2a90076ff0700d482a80079
:100a9c0080bb20005100070044002000c4408800a7
:100aac000c003700cde2a900007721004b000700b5
:100abc00cc82a900803e200048000700cc82a80010
:100acc000002eb00c4408800000000000100370069
:100adc00000000000080fa00000006000000fa0090
:100aec0005408000743e2000848f520008003600c0
:100afc000002eb0004408800444080000402e8003f
:100b0c0044408800844080000402e800844088004f
:100b1c0045408000b4032000848f5200050036004d
:100b2c000002eb0044408800544080000402e800be
:100b3c005440880055408000b4032000848f52003c
:100b4c00020036000002eb00544088008540800013
:100b5c0024032000848f5200020036000002eb00b8
:100b6c00844088000080fa00000006000400fa00af
:100b7c00004f7800110798009e4278000582fb0018
:100b8c008402420024802000048242009e029000d5
:100b9c00050a78000080fa00000006000200fa0046
:100bac00004f78009e4278000582fb0084024200d0
:100bbc00248020000482420014027800e00f5200ce
:100bcc0002003a0014c0b300010037000042eb00f1
:100bdc00044078000080fa00000006000400fa00cf
:100bec00100798001e029000040f78009e007800f9
:100bfc0020c0b300ddff07000000000020c0b300e0
:100c0c00e6ff070000427800e04f5200fbff320085
:100c1c000080fa00000006000000fa00a4408000ea
:100c2c00050020003600200007002000860f52002f
:100c3c00878f5a0040003e0004600100030037001b
:100c4c000f003700240037002f003700c482a900a2
:100c5c00cd82a800d522a800d502a800d4e2a80015
:100c6c00951680000402200004826200e00f5200fe
:100c7c0030003a0014002000a44088002e003700f9
:100c8c00c482a800cdc2a800cda2a800a00f20004d
:100c9c00d2ff0700cdc2a900c4e2a800cc22a80054
:100cac00d462a90000712200ccff0700cc22a9005d
:100cbc00d462a800803e2000c8ff0700cde2a80047
:100ccc00d482a90000712200c4ff07002400200078
:100cdc00a440880018003700cd82a900d522a900b5
:100cec00d502a900d4e2a900c4e2a900cda2a900b2
:100cfc00d482a80080bb2000b8ff0700340020007d
:100d0c00a44088000c003700cde2a9000077210038
:100d1c00b2ff0700cc82a900803e2000afff070085
:100d2c00cc82a8000002eb00a44088000000000068
:100d3c0001003700000000000080fa0000000600ef
:100d4c000000fa004d000700010037000000000011
:100d5c0062ff07009416800061026200e00f5200ef
:100d6c0006003a00c502a900c462a800c442a8004b
:100d7c00d442a800a8ff0700f5ff370094168000a6
:100d8c0062026200e00f520006003a00c502a800a1
:100d9c00c462a900c442a800d442a800fffe070008
:100dac00ebff37005416800068026200e00f52001f
:100dbc0005003a00c502a800c462a800c442a900fc
:100dcc00d442a800e2ff370054168000640262008f
:100ddc00e00f5200ddff3a00c502a800c462a80073
:0c0dec00c442a800d442a900d9ff37007f
:020000040000fa
:100df800000800000c000000000000000c080000c3
:100e080004000000000000001408000002000000b8
:100e180000000000160800000200000000000000aa
:100e2800100800000400000000000000180800007e
:0c0e3800020000000000000000000000ac
:020000040000fa
:100e44000000fa00c4112000241688001420200099
:100e5400041688000401200064168800d4c220000f
:100e640044168800c4012000a4168800340220001f
:100e740084168800e4ff2100641988000080fa00c9
:100e8400000006000000fa0005000700ecff070060
:100e940008000700a8fd07000080fa000000060013
:100ea4000000fa0004002300243a88000080fa00bd
:100eb400000006000000fa003405800004c0a00011
:100ec40004d0a10004e0a100340588000080fa00e9
:040ed4000000060014
:020000040000fa
:020000040001f9
:0457f8009fe8000026
:020000040000fa
:020000040001f9
:0457fc007f3e0000ec
:00000001FF
