:020000040000fa
:080000000002040000000000f2
:020000040000fa
:100008009402000094020000940200009402000090
:100018009402000094020000940200009402000080
:100028009402000094020000940200009402000070
:10003800940200009402000094020000bc02000038
:100048009402000094020000940200009402000050
:100058009402000094020000940200009402000040
:10006800940200009402000094020000520a00006a
:100078009402000094020000940200009402000020
:100088009402000094020000940200009402000010
:100098009402000094020000940200009402000000
:1000a80094020000940200009402000094020000f0
:1000b80094020000940200009402000094020000e0
:1000c80094020000940200009402000094020000d0
:1000d80094020000940200009402000094020000c0
:1000e80094020000940200009402000094020000b0
:1000f80094020000940200009402000094020000a0
:10010800940200009402000094020000940200008f
:10011800940200009402000094020000940200007f
:10012800940200009402000094020000940200006f
:10013800940200009402000094020000940200005f
:10014800940200009402000094020000940200004f
:10015800940200009402000094020000940200003f
:10016800940200009402000094020000940200002f
:10017800940200009402000094020000940200001f
:10018800940200009402000094020000940200000f
:1001980094020000940200009402000094020000ff
:1001a80094020000940200009402000094020000ef
:1001b80094020000940200009402000094020000df
:1001c80094020000940200009402000094020000cf
:1001d80094020000940200009402000094020000bf
:1001e80094020000940200009402000094020000af
:0801f8009402000094020000d3
:020000040000fa
:10020800940200009402000094020000940200008e
:10021800940200009402000094020000940200007e
:10022800940200009402000094020000940200006e
:10023800940200009402000094020000bc02000036
:10024800940200009402000094020000940200004e
:10025800940200009402000094020000940200003e
:10026800940200009402000094020000520a000068
:10027800940200009402000094020000940200001e
:10028800940200009402000094020000940200000e
:1002980094020000940200009402000094020000fe
:1002a80094020000940200009402000094020000ee
:1002b80094020000940200009402000094020000de
:1002c80094020000940200009402000094020000ce
:1002d80094020000940200009402000094020000be
:1002e80094020000940200009402000094020000ae
:1002f800940200009402000094020000940200009e
:10030800940200009402000094020000940200008d
:10031800940200009402000094020000940200007d
:10032800940200009402000094020000940200006d
:10033800940200009402000094020000940200005d
:10034800940200009402000094020000940200004d
:10035800940200009402000094020000940200003d
:10036800940200009402000094020000940200002d
:10037800940200009402000094020000940200001d
:10038800940200009402000094020000940200000d
:1003980094020000940200009402000094020000fd
:1003a80094020000940200009402000094020000ed
:1003b80094020000940200009402000094020000dd
:1003c80094020000940200009402000094020000cd
:1003d80094020000940200009402000094020000bd
:1003e80094020000940200009402000094020000ad
:0803f8009402000094020000d1
:020000040000fa
:100400008f8220000e7f22000e0188000000000075
:1004100000012000200288000c000700e09d200061
:100420000100200011000700000020000000e00093
:100430000200320000000200000000005209020029
:10044000000000000040da000000fe004440a90067
:10045000000020000000e000030032000000200047
:10046000a00188004440a800000006009101880017
:10047000800078000000eb0015003700e2804000ab
:1004800032a0b4009101ba00e280400032a0b40072
:100490009102ba00e280400032a0b4000002eb00fa
:1004a000472bde00f507b200602ce10004003a00a3
:1004b0000059eb008301e900fdff3e000400370016
:1004c0006128e100010032000082eb000400070017
:1004d0001101ba000200e000e8ff3a000000060047
:1004e0003159ba008301e9000c0032002159ba00e9
:1004f0008301e900080032000400e00003003a0034
:10050000e280400032a0b400f5ff370011d9ba00f4
:100510008301e900faff3a008100e800e180400031
:1005200032a0b400000006000040da000000fe0027
:020000040000fa
:100530000000fa0004002800840888000002eb0094
:100540003408880004fa20006408880084e0a900c8
:1005500094e0a8000042eb000440780024e8b700d3
:100560000080fa00000006000000fa00f0ff07001b
:100570000080fa0000000600801f7800841f7800c9
:100580000000fa00644080000402e8006440880033
:1005900094408000e00f520003003200944080003d
:1005a0000402e90094408800a4408000e00f52005b
:1005b00003003200a44080000402e900a440880047
:1005c000b4408000e00f520003003200b4408000cd
:1005d0000402e900b44088005482200014427800ec
:1005e0000442e8000440780025e8b70014c0b300d6
:1005f0000440780024e8b70084e0a9000080fa00f5
:100600004f0278004f007800004006000200fa0018
:10061000000f78001e007800600888000042eb00a0
:100620000440780024e8b7000080fa0000000600cb
:100630000200fa00000f78001e007800f3ff0700a8
:100640000080fa00000006000000fa006408800044
:10065000040078000080fa00000006000000fa00a4
:10066000f9ff070000027800040078000080fa001b
:10067000000006000200fa00000f78001e0078005b
:10068000300888000042eb000440780024e8b700fe
:100690000080fa00000006000200fa00000f780057
:1006a0001e007800f3ff07000080fa00000006003b
:1006b0000000fa0034088000040078000080fa008e
:1006c000000006000000fa00f9ff070000027800b1
:1006d000040078000080fa00000006000000fa0024
:1006e0000080fa00000006000000fa000042eb0063
:1006f0000440780024e8b70094e0a80011e1a800c5
:100700000080fa00000006000000fa00f6ff070073
:100710000080fa00000006000000fa0011e1a900c4
:1007200094e0a9000080fa00000006000000fa0032
:10073000f9ff07000080fa00000006000200fa003e
:1007400024c8bf00004f78001e427800e04f5200de
:10075000030032000042eb000440780024e8b700b8
:100760001e427800044078000080fa000000060075
:100770000000fa00f1ff0700004278000440780012
:100780000080fa00000006000000fa0054822000f9
:1007900014427800044078000080fa00000006004f
:1007a0000000fa00f8ff07000042780004407800db
:1007b0000080fa00000006000000fa000042eb0092
:1007c0000440780025e8b7000080fa000000060029
:1007d0000000fa00f8ff07000080fa0000000600a1
:1007e0000000fa00044080000500200066002000a0
:1007f00007002000860f5200878f5a0082003e00bb
:100800000460010006003700100037001a003700ae
:100810002900370036003700520037005b003700f0
:10082000cc22a800d522a800cd82a80055168000b1
:100830000402200004826200e00f520067003a00c8
:1008400014002000044088006f003700cc22a9006b
:10085000c542a800cda2a800951680000402200081
:1008600004826200e00f52005e003a002400200083
:100870000440880064003700cdc2a800a00f20000b
:1008800079020700cdc2a900c4e2a800cc82a90069
:10089000d482a900c522a900401f200072020700cf
:1008a000c522a800401f20006f020700340020006e
:1008b0000440880054003700141680006102620072
:1008c000e00f5200490032000208a800cc02a90043
:1008d000401f200064020700cc02a800c482a900c7
:1008e000d462a9004400200004408800460037007c
:1008f000358020009542780084c2b30084cf520036
:1009000002003a00cc82a800d482a80035802000e2
:1009100095427800e4c3b30084cf520001003a004e
:10092000c4e2a900358020009542780004c4b300d9
:1009300084cf520001003a00cda2a90035802000ea
:100940009542780044c4b30084cf520029003a0095
:10095000d522a900d502a800540020000440880038
:10096000290037001416800062026200e00f520076
:1009700022003200c482a800d462a8000228a80085
:1009800064002000044088001f00370044802000dd
:1009900014427800ed4f52001a003a00c542a900f7
:1009a0000042eb000440780003e8b7000042eb008f
:1009b0000440780004e8b7000208a9000228a90052
:1009c000cde2a800803e200027020700cde2a9006a
:1009d000cd82a900d502a9000b003700000000005d
:1009e0000900370000000000070037000000000089
:1009f0000500370000000000030037000000000081
:100a000001003700000000000080fa00000006002e
:100a10000000fa003440800005002000560020004d
:100a200007002000860f5200878f5a0070003e009a
:100a300004600100050037000a003700110037008c
:100a40001b003700250037005a003700cc22a800d1
:100a5000d522a800cd82a8001400200034408800d0
:100a600063003700551680000402200004826200f3
:100a7000e00f520059003a00240020003440880062
:100a80005b003700cc22a900c542a800cda2a80077
:100a9000951680000402200004826200e00f5200dc
:100aa00050003a00340020003440880050003700e5
:100ab000cdc2a800a00f2000eb010700cdc2a90005
:100ac000c4e2a800cc82a900d482a9000828a8000a
:100ad000440020003440880045003700a4802000f6
:100ae00014427800ee4f520002003a00c482a9007e
:100af000d462a900a58020009542780064c3b300a9
:100b000084cf520002003a00cc82a800d482a80010
:100b1000a580200095427800c4c4b30084cf520061
:100b200002003a00c4e2a90056000700a580200098
:100b300095427800e4c4b30084cf520001003a002b
:100b4000cda2a900a58020009542780024c5b3005d
:100b500084cf520002003a00d522a900d502a80095
:100b6000a58020009542780064c5b30084cf520070
:100b700003003a00c482a800d462a8001e00070047
:100b8000a58020009542780024c6b30084cf52008f
:100b900016003a00c542a9000828a9000042eb004f
:100ba000044078000ae8b700540020003440880070
:100bb0000f003700cde2a800803e2000aa01070008
:100bc000cde2a900cd82a900d502a9000002eb0068
:100bd00034408800000000000500370000000000dd
:100be0000300370000000000010037000000000093
:100bf0000080fa00000006000000fa000002eb008e
:100c0000e44088001700370064002000f4408800aa
:100c10003f0007005000200093010700a4002000bf
:100c2000f44088003a000700500020008e010700c1
:100c300094002000f4408800350007005000200098
:100c40008901070054002000f440880030000700ac
:100c50005000200084010700e44080000402e80006
:100c6000e4408800e4408000e80f5200e6ff3400d2
:100c70000002eb00f4408800250007000080fa0025
:100c8000000006000000fa000002eb00e4408800cb
:100c90001700370054002000f44088001c000700b3
:100ca000001920007001070094002000f440880023
:100cb00017000700001920006b010700a4002000a6
:100cc000f4408800120007000019200066010700a8
:100cd00064002000f44088000d0007000019200087
:100ce00061010700e44080000402e800e44088005d
:100cf000e4408000e80f5200e6ff34000002eb0001
:100d0000f4408800020007000080fa00000006009e
:100d10000000fa00f4408000614262000482fb009f
:100d2000610262004622dd00a6168000f5fb2f005e
:100d30008502630004827200a4168800f4408000db
:100d40000402d100614262000482fb006102620081
:100d50004922dd0066168000f5df2f008502630062
:100d60000482720064168800f44080004222de0093
:100d7000614262000482fb00610262004822dd00e1
:100d800066168000f5ef2f00850263000482720072
:100d900064168800f44080004322de006142620055
:100da0000482fb00610262004722dd0066168000bb
:100db000f5f72f0085026300048272006416880034
:100dc0000080fa00000006000000fa0014418000d4
:100dd000050020006600200007002000860f52005a
:100de000878f5a0062003e00046001000600370051
:100df0001200370023003700290037003800370081
:100e00003e00370048003700cc22a800cd82a80061
:100e1000d522a800d502a800d4e2a800951680002b
:100e20000402200004826200e00f52004b003a00ee
:100e300014002000144188004d003700cc22a90086
:100e4000cdc2a800cda2a800a00f20000601070077
:100e5000cdc2a900c4e2a800c482a900d462a9003e
:100e6000c522a900401f2000ff000700c522a800de
:100e7000401f2000fc0007002400200014418800cf
:100e80003b0037001416800061026200e00f520040
:100e90003400320034002000144188003400370050
:100ea000c482a800d462a800803e2000ee000700a3
:100eb000cc82a900d482a900cc02a900401f200046
:100ec000e9000700cc02a800401f2000e600070050
:100ed0006cff070044002000144188002400370004
:100ee0001416800062026200e00f52001f00320000
:100ef00054002000144188001d003700cd82a90055
:100f0000c4e2a900d522a900d502a900d4e2a90013
:100f1000cda2a90010002000d3000700640020002b
:100f20001441880012003700cc82a800d482a800a7
:100f300000772100cc000700cde2a800803e200011
:100f4000c9000700cde2a9002bff07000002eb005b
:100f50001441880000000000050037000000000078
:100f6000030037000000000001003700000000000f
:100f70000080fa00000006000000fa000441800032
:100f8000050020006600200007002000860f5200a8
:100f9000878f5a0060003e000460010006003700a1
:100fa00012003700230037002900370037003700d0
:100fb0003d00370047003700cc22a800cd82a800b2
:100fc000d522a800d502a800d4e2a800951680007a
:100fd0000402200004826200e00f520049003a003f
:100fe00014002000044188004b003700cc22a900e7
:100ff000cdc2a800cda2a800a00f20009a00070033
:10100000cdc2a900c4e2a800c482a900d462a9008c
:10101000c522a900401f200093000700c522a80098
:10102000401f200090000700240020000441880099
:10103000390037001416800061026200e00f520090
:1010400032003200340020000441880032003700b2
:10105000c482a800d462a8004019210082000700c1
:10106000cc82a900d482a900cc02a900401f200094
:101070007d000700cc02a800401f20007a00070076
:10108000440020000441880023003700141680002b
:1010900062026200e00f52001e0032005400200085
:1010a000044188001c003700cd82a900c4e2a900d9
:1010b000d522a900d502a900d4e2a900cda2a90099
:1010c00080bb200068000700640020000441880005
:1010d00011003700cc82a800d482a800007721003c
:1010e00061000700cde2a800803e20005e000700fe
:1010f000cde2a9000002eb000441880000000000de
:101100000500370000000000030037000000000069
:1011100001003700000000000080fa000000060017
:101120000000fa0065408000743e2000848f520069
:101130002f0036000002eb006440880074408000fd
:101140000402e80074408800c44080000402e80003
:10115000c44088001440800061026200e00f520029
:101160000500320034802000144278000442e80078
:101170000440780003e8b700144080006202620077
:10118000e00f520005003200448020001442780035
:101190000442e8000440780004e8b700754080008d
:1011a000b4032000848f5200050036000002eb00db
:1011b00074408800844080000402e8008440880075
:1011c00085408000b4032000848f52000200360066
:1011d0000002eb0084408800c5408000240320000a
:1011e000848f5200020036000002eb00c4408800e9
:1011f0000080fa00000006000400fa00004f7800aa
:10120000110798009e4278000582fb00840242008c
:1012100024812000048242009e029000050a78008a
:101220000080fa00000006000200fa00004f78007b
:101230009e4278000582fb00840242002481200047
:101240000482420014027800e00f520002003a00cb
:1012500014c0b300010037000042eb0004407800e6
:101260000080fa00000006000400fa001007980051
:101270001e029000040f78009e00780020c0b3008a
:10128000ddff07000000000020c0b300e6ff0700fc
:1012900000427800e04f5200fbff32000080fa006d
:1012a000000006000000fa009f000700941680006e
:1012b00061026200e00f520003003a000002eb00fe
:1012c000d440880014003700941680006202620047
:1012d000e00f520003003a0014002000d4408800c0
:1012e0000d0037005416800068026200e00f5200c3
:1012f00003003a0024002000d44088000600370094
:101300005416800064026200e00f520002003a00ae
:1013100034002000d4408800c522a800cc02a800d8
:1013200001003700000000007dff0700d44080006e
:10133000e00f520006003a00c502a900c462a800ee
:10134000c442a800d442a8000bff0700f6ff3700f4
:10135000d4408000e10f520006003a00c502a80008
:10136000c462a900c442a800d442a80096fe0700a7
:10137000edff3700d4408000e20f520006003a0033
:10138000c502a800c462a800c442a900d442a800b3
:1013900013fd0700e4ff3700d4408000e30f520044
:1013a000e0ff3a00c502a800c462a800c442a80039
:0c13b000d442a90096fd0700dbff3700c7
:020000040000fa
:1013bc001c080000020000000200000000000000f9
:1013cc001e080000020000000000000020080000c1
:1013dc0002000000000000002208000002000000d3
:1013ec0000000000000800000600000000000000e3
:1013fc0006080000060000000000000024080000a1
:10140c0002000000000000000c08000006000000b4
:10141c00000000001208000006000000020000009e
:10142c00000000000000000018080000040000008c
:10143c00000000002608000002000000020000006e
:08144c00000000000000000098
:020000040000fa
:101454000000fa00441680004622de006142620069
:101464000404a000614262000482fb006102620085
:101474004622dd0046168000f5fb2f00850263003e
:1014840004827200441688006300a8006b00a9005f
:101494008660a9009660a8000080fa00000006009b
:1014a400801f7800849fbe000000fa008660a900b7
:1014b400551680000404200004826200e00f5200ec
:1014c40003003a000042eb000440780026e8b7002d
:1014d4000080fa004f02be004f0078000040060072
:1014e4000000fa00c41120002416880034002000f3
:1014f400041688000401200064168800c4c6200075
:1015040044168800c4012000a41688003402200078
:1015140084168800f4ff2100641988000080fa0012
:10152400000006000000fa0005000700ecff0700b9
:1015340008000700fdfb07000080fa000000060019
:101544000000fa0004002300243a88000080fa0016
:10155400000006000000fa003405800004c0a0006a
:1015640004d0a10004e0a10034058800b8ff0700fe
:081574000080fa0000000600ef
:020000040000fa
:020000040001f9
:0457f8009fe8000026
:020000040000fa
:020000040001f9
:0457fc007f3e0000ec
:00000001FF
