:020000040000fa
:080000000002040000000000f2
:020000040000fa
:100008009a0200009a0200009a0200009a02000078
:100018009a0200009a0200009a0200009a02000068
:100028009a0200009a0200009a0200009a02000058
:100038009a0200009a0200009a020000c002000022
:100048009a0200009a0200009a0200009a02000038
:100058009a0200009a0200009a0200009a02000028
:100068009a0200009a0200009a020000260a000084
:100078009a0200009a0200009a0200009a02000008
:100088009a0200009a0200009a0200009a020000f8
:100098009a0200009a0200009a0200009a020000e8
:1000a8009a0200009a0200009a0200009a020000d8
:1000b8009a0200009a0200009a0200009a020000c8
:1000c8009a0200009a0200009a0200009a020000b8
:1000d8009a0200009a0200009a0200009a020000a8
:1000e8009a0200009a0200009a0200009a02000098
:1000f8009a0200009a0200009a0200009a02000088
:100108009a0200009a0200009a0200009a02000077
:100118009a0200009a0200009a0200009a02000067
:100128009a0200009a0200009a0200009a02000057
:100138009a0200009a0200009a0200009a02000047
:100148009a0200009a0200009a0200009a02000037
:100158009a0200009a0200009a0200009a02000027
:100168009a0200009a0200009a0200009a02000017
:100178009a0200009a0200009a0200009a02000007
:100188009a0200009a0200009a0200009a020000f7
:100198009a0200009a0200009a0200009a020000e7
:1001a8009a0200009a0200009a0200009a020000d7
:1001b8009a0200009a0200009a0200009a020000c7
:1001c8009a0200009a0200009a0200009a020000b7
:1001d8009a0200009a0200009a0200009a020000a7
:1001e8009a0200009a0200009a0200009a02000097
:0801f8009a0200009a020000c7
:020000040000fa
:100208009a0200009a0200009a0200009a02000076
:100218009a0200009a0200009a0200009a02000066
:100228009a0200009a0200009a0200009a02000056
:100238009a0200009a0200009a020000c002000020
:100248009a0200009a0200009a0200009a02000036
:100258009a0200009a0200009a0200009a02000026
:100268009a0200009a0200009a020000260a000082
:100278009a0200009a0200009a0200009a02000006
:100288009a0200009a0200009a0200009a020000f6
:100298009a0200009a0200009a0200009a020000e6
:1002a8009a0200009a0200009a0200009a020000d6
:1002b8009a0200009a0200009a0200009a020000c6
:1002c8009a0200009a0200009a0200009a020000b6
:1002d8009a0200009a0200009a0200009a020000a6
:1002e8009a0200009a0200009a0200009a02000096
:1002f8009a0200009a0200009a0200009a02000086
:100308009a0200009a0200009a0200009a02000075
:100318009a0200009a0200009a0200009a02000065
:100328009a0200009a0200009a0200009a02000055
:100338009a0200009a0200009a0200009a02000045
:100348009a0200009a0200009a0200009a02000035
:100358009a0200009a0200009a0200009a02000025
:100368009a0200009a0200009a0200009a02000015
:100378009a0200009a0200009a0200009a02000005
:100388009a0200009a0200009a0200009a020000f5
:100398009a0200009a0200009a0200009a020000e5
:1003a8009a0200009a0200009a0200009a020000d5
:1003b8009a0200009a0200009a0200009a020000c5
:1003c8009a0200009a0200009a0200009a020000b5
:1003d8009a0200009a0200009a0200009a020000a5
:1003e8009a0200009a0200009a0200009a02000095
:0803f8009a0200009a020000c5
:020000040000fa
:100400002f8220000e7f22000e01880000000000d5
:10041000000020000000e000020032000001200087
:10042000200288000c000700609c200001002000d2
:1004300011000700000020000000e0000200320070
:10044000000002000000000042090200000000005d
:100450000040da000000fe004440a9000000200037
:100460000000e0000300320000002000a00188002e
:100470004440a80000000600910188008000780038
:100480000000eb0015003700e280400032a0b4000d
:100490009101ba00e280400032a0b4009102ba009b
:1004a000e280400032a0b4000002eb00472bde00e7
:1004b000f507b200602ce10004003a000059eb009f
:1004c0008301e900fdff3e00040037006128e100e0
:1004d000010032000082eb00040007001101ba00a5
:1004e0000200e000e8ff3a00000006003159ba00bf
:1004f0008301e9000c0032002159ba008301e900b0
:10050000080032000400e00003003a00e2804000ee
:1005100032a0b400f5ff370011d9ba008301e90019
:10052000faff3a008100e800e180400032a0b40008
:0c053000000006000040da000000fe00a1
:020000040000fa
:10053c000000fa0000002800800888000621ef0067
:10054c0000fa20006008880084e0a90094e0a8006c
:10055c00008220008040eb00014878000080fa0007
:10056c00000006000000fa00f1ff07000080fa000e
:10057c0000000600809fbe000000fa0030408000a2
:10058c000000e80030408800d04080000000e0000f
:10059c0003003200d04080000000e900d040880009
:1005ac00e04080000000e00003003200e0408000ea
:1005bc000000e900e0408800f04080000000e0000e
:1005cc0003003200f04080000000e900f040880099
:1005dc0010822000104078008040e800108220003b
:1005ec00014878000082200011c0b3000148780057
:1005fc0084e0a9000080fa004f00be000040060015
:10060c000200fa00000f78009e0078006108880054
:10061c00008220008040eb00014878000080fa0046
:10062c00000006000200fa00000f78001e0078009f
:10063c00f3ff07000080fa00000006000000fa003b
:10064c00600880000080fa00000006000000fa003c
:10065c00faff07000080fa00000006000200fa0012
:10066c00000f78009e00780031088800008220007e
:10067c008040eb00014878000080fa000000060082
:10068c000200fa00000f78001e007800f3ff07004c
:10069c000080fa00000006000000fa00300880001c
:1006ac000080fa00000006000000fa00faff0700c4
:1006bc000080fa00000006000000fa000080fa003a
:1006cc00000006000000fa00008220008040eb00d1
:1006dc000148780094e0a80011e1a8000080fa001d
:1006ec00000006000000fa00f6ff07000080fa0088
:1006fc00000006000000fa0011e1a90094e0a90036
:10070c000080fa00000006000000fa00f9ff070064
:10071c000080fa00000006000200fa0000822000af
:10072c00104f78001e4078000004e00003003200f7
:10073c00008220008040eb00014878001e407800c9
:10074c000080fa00000006000000fa00f2ff07002b
:10075c000080fa00000006000000fa001082200061
:10076c00104078000080fa00000006000000fa003b
:10077c00f9ff07000080fa00000006000000fa00f4
:10078c00108220008040eb00014878000080fa00c5
:10079c00000006000000fa00f8ff07000080fa00d5
:1007ac00000006000000fa00c0408000e30f50007b
:1007bc0034003200e30f500005003e00e10f500002
:1007cc0015003200e10f50001e003e0007003700fc
:1007dc00e50f500057003200e50f5000370039008c
:1007ec00e60f50005f00320079003700cc22a800e1
:1007fc00d522a800cd82a80051168000000220004e
:10080c00008060000000e00066003a00100020004c
:10081c00c04088006e003700cc22a900c542a80059
:10082c00cda2a8009116800000022000008060007c
:10083c000000e0005d003a0020002000c04088006d
:10084c0063003700cdc2a800a00f20007c02070077
:10085c00cdc2a900c4e2a800cc82a900d482a90010
:10086c00cc02a900401f200075020700cc02a80092
:10087c00401f20007202070030002000c04088009a
:10088c005300370010168000620060000000e0008a
:10089c00480032000208a800c522a900401f200011
:1008ac0067020700c522a800c482a900d462a9006f
:1008bc0040002000c04088004500370031802000f7
:1008cc009140780080c2b30080cf500002003a0003
:1008dc00cc82a800d482a8003180200091407800fe
:1008ec00e0c3b30080cf500002003a00c4e2a9007c
:1008fc00e5000700318020009140780000c4b3006f
:10090c0080cf500001003a00cda2a9003180200018
:10091c009140780040c4b30080cf500027003a00cb
:10092c00d522a900d502a80050002000c0408800a4
:10093c002700370010168000610060000000e00006
:10094c0020003200c482a800d462a800ad000700c9
:10095c000228a8000468ef0060002000c040880056
:10096c001b00370004c8bf00ed4f500017003a00c1
:10097c00c542a9000368ef000468ef000208a90053
:10098c000228a900cde2a800803e20002c0207001e
:10099c00cde2a900cd82a900d502a9001828ef004c
:1009ac000b003700000000000900370000000000b9
:1009bc0007003700000000000500370000000000b1
:1009cc0003003700000000000100370000000000a9
:1009dc000080fa00000006000000fa0000408000d1
:1009ec00e30f500034003200e30f500005003e00ce
:1009fc00e10f500015003200e10f50001e003e00c8
:100a0c0007003700e50f500056003200e50f50008c
:100a1c0037003900e60f50005d00320077003700d8
:100a2c00cc22a800d522a800cd82a80051168000a7
:100a3c0000022000008060000000e00064003a002a
:100a4c0010002000004088006c003700cc22a90068
:100a5c00c542a800cda2a80091168000000220007b
:100a6c00008060000000e0005b003a0020002000e5
:100a7c000040880061003700cdc2a800a00f200004
:100a8c00ef010700cdc2a900c4e2a800cc82a900e6
:100a9c00d482a900cc02a900401f2000e801070065
:100aac00cc02a800401f2000e50107003000200008
:100abc000040880051003700101680006200600072
:100acc000000e000460032000208a800c522a90080
:100adc00401f2000da010700c522a800c482a9002b
:100aec00d462a90040002000004088004300370079
:100afc00318020009140780080c2b30080cf50003c
:100b0c0002003a00cc82a800d482a80031802000d8
:100b1c0091407800e0c3b30080cf500001003a0050
:100b2c00c4e2a900318020009140780000c4b300d9
:100b3c0080cf500001003a00cda2a90031802000e6
:100b4c009140780040c4b30080cf500026003a009a
:100b5c00d522a900d502a800500020000040880032
:100b6c002600370010168000610060000000e000d5
:100b7c001f003200c482a800d462a8000228a8007a
:100b8c000468ef0060002000004088001b00370064
:100b9c0004c8bf00ed4f500017003a00c542a90031
:100bac000368ef000468ef000208a9000228a900fe
:100bbc00cde2a800803e2000a1010700cde2a900f3
:100bcc00cd82a900d502a9000028ef000b00370048
:100bdc00000000000900370000000000070037008b
:100bec000000000005003700000000000300370083
:100bfc000000000001003700000000000080fa0037
:100c0c00000006000000fa000c28ef001700370067
:100c1c0060002000704088003c0007000019200094
:100c2c0087010700a00020007040880037000700f3
:100c3c0000192000820107009000200070408800fd
:100c4c0032000700001920007d0107005000200031
:100c5c00704088002d000700001920007801070063
:100c6c00604080000000e800604088006040800028
:100c7c00e80f5000e6ff34000e28ef0023000700b9
:100c8c000080fa00000006000000fa000c28ef00bb
:100c9c001700370050002000704088001b00070030
:100cac0000192000660107009000200070408800a9
:100cbc00160007000019200061010700a0002000a9
:100ccc007040880011000700001920005c0107002b
:100cdc0060002000704088000c0007000019200004
:100cec0057010700604080000000e8006040880069
:100cfc0060408000e80f5000e6ff34000e28ef0043
:100d0c00020007000080fa00000006000000fa0054
:100d1c0070408000614060000080fb00610060005a
:100d2c004600dd00a2168000f1fb2f00810061005f
:100d3c0001007000a0168800704080000000d100f7
:100d4c00614060000080fb00610060004900dd0034
:100d5c0062168000f1df2f0081006100010070003d
:100d6c0060168800704080004200de006140600028
:100d7c000080fb00610060004800dd00621680000e
:100d8c00f1ef2f00810061000100700060168800f7
:100d9c00704080004300de00614060000080fb007a
:100dac00610060004700dd0062168000f1f72f0043
:100dbc008100610001007000601688000080fa005c
:100dcc00000006000000fa00b0408000e30f500065
:100ddc0034003200e30f500005003e00e10f5000dc
:100dec0017003200e10f500027003e0007003700cb
:100dfc00e50f500042003200e50f50003900390079
:100e0c00e60f50004900320059003700cc22a800f0
:100e1c00cd82a800d522a800d502a800d4e2a80053
:100e2c009116800000022000008060000000e000ad
:100e3c004a003a0010002000b04088004c003700f7
:100e4c00cc22a900cdc2a800cda2a800a00f2000e2
:100e5c00fb000700cdc2a900c4e2a800c482a9000f
:100e6c00d462a900c522a900401f2000f40007008d
:100e7c00c522a800401f2000f10007002000200020
:100e8c00b04088003a003700101680006100600006
:100e9c000000e0003300320030002000b040880039
:100eac0033003700c482a800d462a800803e200022
:100ebc00e3000700cc82a900d482a900cc02a900cf
:100ecc00401f2000de000700cc02a800401f2000bd
:100edc00db0007006cff070040002000b0408800da
:100eec002300370010168000620060000000e00054
:100efc001e00320050002000b04088001c0037005b
:100f0c00cd82a900c4e2a900d522a900d502a9006e
:100f1c00d4e2a900cda2a90010002000c80007004f
:100f2c0060002000b040880011003700cc82a8007f
:100f3c00d482a80000772100c1000700cde2a800f0
:100f4c00803e2000be000700cde2a9002dff070067
:100f5c001628ef000000000005003700000000001c
:100f6c000300370000000000010037000000000003
:100f7c000080fa00000006000000fa00a04080008b
:100f8c00e30f500034003200e30f500005003e0028
:100f9c00e10f500017003200e10f500027003e0017
:100fac0007003700e50f500041003200e50f5000fc
:100fbc0038003900e60f5000480032005700370067
:100fcc00cc22a800cd82a800d522a800d502a8006a
:100fdc00d4e2a8009116800000022000008060007e
:100fec000000e00048003a0010002000a0408800fb
:100ffc004a003700cc22a900cdc2a800cda2a8007f
:10100c00a00f20008e000700cdc2a900c4e2a800ea
:10101c00c482a900d462a900c522a900401f2000e7
:10102c0087000700c522a800401f2000840007008d
:10103c0020002000a04088003800370010168000e7
:10104c00610060000000e000310032003000200040
:10105c00a040880031003700c482a800d462a800e8
:10106c004019210076000700cc82a900d482a90087
:10107c00cc02a900401f200071000700cc02a80080
:10108c00401f20006e00070040002000a040880098
:10109c002200370010168000620060000000e000a3
:1010ac001d00320050002000a04088001b003700bb
:1010bc00cd82a900c4e2a900d522a900d502a900bd
:1010cc00d4e2a900cda2a90080bb20005c000700df
:1010dc0060002000a040880010003700cc82a800df
:1010ec00d482a8000077210055000700cde2a800ab
:1010fc00803e200052000700cde2a9001428ef002a
:10110c00000000000500370000000000030037005d
:10111c000000000001003700000000000080fa0011
:10112c00000006000000fa0031408000703e2000f4
:10113c00808f5000270036000628ef0040408000ca
:10114c000000e80040408800804080000000e8007b
:10115c008040880010408000610060000000e000ca
:10116c000300320003c8bf000040e80003e8b700ea
:10117c0010408000620060000000e00003003200bc
:10118c0004c8bf000040e80004e8b70041408000fc
:10119c00b0032000808f5000040036000828ef00b8
:1011ac00504080000000e800504088005140800012
:1011bc00b0032000808f5000010036000a28ef0099
:1011cc008140800020032000808f500001003600f9
:1011dc001028ef000080fa00000006000400fa005e
:1011ec00004f7800110798001e80fb008000400023
:1011fc00a0812000008040009e0090000108780033
:10120c000080fa00000006000200fa00004f78008f
:10121c001e80fb0080004000a08120000080400068
:10122c00100078000000e00002003a0010c0b3008b
:10123c00010037000040eb000080fa0000000600bf
:10124c000400fa00100798009e009000010f78002f
:10125c009e00780020c0b300e0ff070000000000f3
:10126c0020c0b300e8ff07000004e000fcff3200e0
:10127c000080fa00000006000000fa00860007005b
:10128c0090168000610060000000e00001003a0050
:10129c001228ef0090168000620060000000e00051
:1012ac0002003a0010002000904088005016800088
:1012bc00680060000000e00002003a0020002000fe
:1012cc009040880050168000640060000000e00030
:1012dc0002003a003000200090408800c522a8008f
:1012ec00cc02a80001003700000000008dff0700b1
:1012fc00904080000000e00006003a00c502a90002
:10130c00c462a800c442a800d442a8001aff070077
:10131c00f6ff370090408000e10f500006003a00c5
:10132c00c502a800c462a900c442a800d442a80007
:10133c00a4fe0700edff370090408000e20f500044
:10134c0006003a00c502a800c462a800c442a90065
:10135c00d442a800a0fd0700e4ff370090408000b5
:10136c00e30f5000e0ff3a00c502a800c462a800d9
:10137c00c442a800d442a9000afd0700dbff3700d5
:020000040000fa
:10138c000c0800000400000000000000140800001d
:10139c00020000000000000016080000020000001f
:1013ac000000000000080000060000000000000023
:1013bc0018080000020000000000000020080000d7
:1013cc0002000000000000001a08000006000000e7
:1013dc0000000000060800000600000000000000ed
:1013ec0010080000040000000000000000000000d5
:020000040000fa
:1013fc000000fa00401680004600de0061406000ec
:10140c000004a000614060000080fb0061006000ef
:10141c004600dd0042168000f1fb2f0081006100c8
:10142c0001007000401688006300a8006b00a90042
:10143c008660a9009660a8000080fa0000000600f3
:10144c000000fa008660a9000000fe000080fa008f
:10145c00004006000000fa00c01120002016880091
:10146c003000200000168800000120006016880063
:10147c00c0c6200040168800c0012000a0168800bd
:10148c003002200080168800f0ff210060198800cf
:10149c000080fa00000006000000fa0005000700ba
:1014ac00ecff07000800070021fc07000080fa0091
:1014bc00000006000000fa0000002300203a88001b
:1014cc000080fa00000006000000fa0030058000e1
:1014dc0000c0a00000d0a10000e0a10030058800f1
:0c14ec00c3ff07000080fa0000000600ab
:020000040000fa
:020000040001f9
:0457f8009fe8000026
:020000040000fa
:020000040001f9
:0457fc007f3e0000ec
:00000001FF
