:020000040000fa
:080000000002040000000000f2
:020000040000fa
:100008009a0200009a0200009a0200009a02000078
:100018009a0200009a0200009a0200009a02000068
:100028009a0200009a0200009a0200009a02000058
:100038009a0200009a0200009a020000c002000022
:100048009a0200009a0200009a0200009a02000038
:100058009a0200009a0200009a0200009a02000028
:100068009a0200009a0200009a0200009a02000018
:100078009a0200009a0200009a0200009a02000008
:100088009a0200009a0200009a0200009a020000f8
:100098009a0200009a0200009a0200009a020000e8
:1000a8009a0200009a0200009a0200009a020000d8
:1000b8009a0200009a0200009a0200009a020000c8
:1000c8009a0200009a0200009a0200009a020000b8
:1000d8009a0200009a0200009a0200009a020000a8
:1000e8009a0200009a0200009a0200009a02000098
:1000f8009a0200009a0200009a0200009a02000088
:100108009a0200009a0200009a0200009a02000077
:100118009a0200009a0200009a0200009a02000067
:100128009a0200009a0200009a0200009a02000057
:100138009a0200009a0200009a0200009a02000047
:100148009a0200009a0200009a0200009a02000037
:100158009a0200009a0200009a0200009a02000027
:100168009a0200009a0200009a0200009a02000017
:100178009a0200009a0200009a0200009a02000007
:100188009a0200009a0200009a0200009a020000f7
:100198009a0200009a0200009a0200009a020000e7
:1001a8009a0200009a0200009a0200009a020000d7
:1001b8009a0200009a0200009a0200009a020000c7
:1001c8009a0200009a0200009a0200009a020000b7
:1001d8009a0200009a0200009a0200009a020000a7
:1001e8009a0200009a0200009a0200009a02000097
:0801f8009a0200009a020000c7
:020000040000fa
:100208009a0200009a0200009a0200009a02000076
:100218009a0200009a0200009a0200009a02000066
:100228009a0200009a0200009a0200009a02000056
:100238009a0200009a0200009a020000c002000020
:100248009a0200009a0200009a0200009a02000036
:100258009a0200009a0200009a0200009a02000026
:100268009a0200009a0200009a0200009a02000016
:100278009a0200009a0200009a0200009a02000006
:100288009a0200009a0200009a0200009a020000f6
:100298009a0200009a0200009a0200009a020000e6
:1002a8009a0200009a0200009a0200009a020000d6
:1002b8009a0200009a0200009a0200009a020000c6
:1002c8009a0200009a0200009a0200009a020000b6
:1002d8009a0200009a0200009a0200009a020000a6
:1002e8009a0200009a0200009a0200009a02000096
:1002f8009a0200009a0200009a0200009a02000086
:100308009a0200009a0200009a0200009a02000075
:100318009a0200009a0200009a0200009a02000065
:100328009a0200009a0200009a0200009a02000055
:100338009a0200009a0200009a0200009a02000045
:100348009a0200009a0200009a0200009a02000035
:100358009a0200009a0200009a0200009a02000025
:100368009a0200009a0200009a0200009a02000015
:100378009a0200009a0200009a0200009a02000005
:100388009a0200009a0200009a0200009a020000f5
:100398009a0200009a0200009a0200009a020000e5
:1003a8009a0200009a0200009a0200009a020000d5
:1003b8009a0200009a0200009a0200009a020000c5
:1003c8009a0200009a0200009a0200009a020000b5
:1003d8009a0200009a0200009a0200009a020000a5
:1003e8009a0200009a0200009a0200009a02000095
:0803f8009a0200009a020000c5
:020000040000fa
:100400006f8220000e7f22000e0188000000000095
:10041000000020000000e000020032000001200087
:10042000200288000c000700208c20000100200022
:1004300011000700000020000000e0000200320070
:1004400000000200000000003c0802000000000064
:100450000040da000000fe004440a9000000200037
:100460000000e0000300320000002000a00188002e
:100470004440a80000000600910188008000780038
:100480000000eb0015003700e280400032a0b4000d
:100490009101ba00e280400032a0b4009102ba009b
:1004a000e280400032a0b4000002eb00472bde00e7
:1004b000f507b200602ce10004003a000059eb009f
:1004c0008301e900fdff3e00040037006128e100e0
:1004d000010032000082eb00040007001101ba00a5
:1004e0000200e000e8ff3a00000006003159ba00bf
:1004f0008301e9000c0032002159ba008301e900b0
:10050000080032000400e00003003a00e2804000ee
:1005100032a0b400f5ff370011d9ba008301e90019
:10052000faff3a008100e800e180400032a0b40008
:0c053000000006000040da000000fe00a1
:020000040000fa
:10053c000000fa0000002800800888000621ef0067
:10054c0000fa20006008880084e0a90094e0a8006c
:10055c00408220008040eb00014878000080fa00c7
:10056c00000006000000fa00f1ff07000080fa000e
:10057c0000000600809fbe000000fa0030408000a2
:10058c000000e80030408800f04080000000e000ef
:10059c0003003200f04080000000e900f0408800c9
:1005ac00004180000000e0000300320000418000a8
:1005bc000000e90000418800104180000000e000cc
:1005cc0003003200104180000000e9001041880057
:1005dc0050822000104078008040e80050822000bb
:1005ec00014878004082200011c0b3000148780017
:1005fc0084e0a9000080fa004f00be000040060015
:10060c000200fa00000f78009e0078006108880054
:10061c00408220008040eb00014878000080fa0006
:10062c00000006000200fa00000f78001e0078009f
:10063c00f3ff07000080fa00000006000000fa003b
:10064c00600880000080fa00000006000000fa003c
:10065c00faff07000080fa00000006000200fa0012
:10066c00000f78009e00780031088800408220003e
:10067c008040eb00014878000080fa000000060082
:10068c000200fa00000f78001e007800f3ff07004c
:10069c000080fa00000006000000fa00300880001c
:1006ac000080fa00000006000000fa00faff0700c4
:1006bc000080fa00000006000000fa000080fa003a
:1006cc00000006000000fa00408220008040eb0091
:1006dc000148780094e0a80011e1a8000080fa001d
:1006ec00000006000000fa00f6ff07000080fa0088
:1006fc00000006000000fa0011e1a90094e0a90036
:10070c000080fa00000006000000fa00f9ff070064
:10071c000080fa00000006000200fa00408220006f
:10072c00104f78001e4078000004e00003003200f7
:10073c00408220008040eb00014878001e40780089
:10074c000080fa00000006000000fa00f2ff07002b
:10075c000080fa00000006000000fa005082200021
:10076c00104078000080fa00000006000000fa003b
:10077c00f9ff07000080fa00000006000000fa00f4
:10078c00508220008040eb00014878000080fa0085
:10079c00000006000000fa00f8ff07000080fa00d5
:1007ac00000006000000fa0060408000e20f5000dc
:1007bc0024003200e20f500005003e000000e00073
:1007cc000a003200e10f5000120032006a003700bc
:1007dc00e40f50002e003200e40f500021003900cd
:1007ec00e50f50005300320063003700c482a900ab
:1007fc00cda2a800511680000002200000806000ed
:10080c000000e00055003a00100020006040880015
:10081c0059003700c482a800cd82a8005116800070
:10082c0000042000008060000000e0004d003a0051
:10083c00c542a800cda2a80020002000604088007e
:10084c004d003700911680000002200000806000ef
:10085c000000e00045003a003000200060408800b5
:10086c0045003700cdc2a800a00f2000aa01070048
:10087c00cdc2a900c4e2a800cde2a800d462a800b1
:10088c000e48a80040002000604088003a00370065
:10089c0010c8bf00ee4f500002003a00cc22a80056
:1008ac00d482a900018120009140780080c2b3005d
:1008bc0080cf500002003a00cde2a900d462a8001b
:1008cc000181200091407800c0c4b30080cf50005b
:1008dc0002003a00c4e2a9002900070001812000af
:1008ec0091407800e0c4b30080cf500001003a0082
:1008fc00cda2a900018120009140780020c5b30051
:10090c0080cf50001b003a00d522a900d502a800c8
:10091c00cd82a900cc22a900d482a8003700070000
:10092c000e48a9001068ef005000200060408800bd
:10093c001100370080bb200077010700c542a900d9
:10094c00cc82a900803e200073010700cc82a80055
:10095c000c28ef000000000007003700000000002a
:10096c000500370000000000030037000000000005
:10097c0001003700000000000080fa0000000600b3
:10098c000000fa001228ef0017003700600020006a
:10099c00a040880038000700200320005e010700fb
:1009ac00a0002000a0408800330007002003200096
:1009bc005901070090002000a04088002e0007007d
:1009cc00200320005401070050002000a0408800a4
:1009dc0029000700200320004f01070090408000f1
:1009ec000000e8009040880090408000e90f500023
:1009fc00e6ff34000080fa00000006000000fa0058
:100a0c001228ef001700370050002000a04088008b
:100a1c0019000700200320003f0107009000200070
:100a2c00a040880014000700200320003a010700b2
:100a3c00a0002000a04088000f0007002003200029
:100a4c003501070060002000a04088000a00070064
:100a5c002003200030010700904080000000e800d7
:100a6c009040880090408000e90f5000e6ff340071
:100a7c000080fa00000006000000fa00a040800090
:100a8c00614060000080fb00610060004600dd00fa
:100a9c00a2168000f1fb2f008100610001007000a4
:100aac00a0168800a04080000000d10061406000ca
:100abc000080fb00610060004900dd0062168000d0
:100acc00f1df2f00810061000100700060168800ca
:100adc00a04080004200de00614060000080fb000e
:100aec00610060004800dd0062168000f1ef2f000d
:100afc00810061000100700060168800a040800039
:100b0c004300de00614060000080fb00610060007b
:100b1c004700dd0062168000f1f72f0081006100b4
:100b2c0001007000601688000080fa0000000600ca
:100b3c000000fa0000408000e20f5000220032005a
:100b4c00e20f500005003e000000e00008003200fb
:100b5c00e10f5000100032005c003700e30f500032
:100b6c0024003200e40f50004900320057003700d7
:100b7c00c482a900d522a8005116800000022000d2
:100b8c00008060000000e0004b003a0010002000e4
:100b9c00004088004d003700c482a800cd82a80018
:100bac00c542a800cda2a80091168000000220002a
:100bbc00008060000000e00041003a0020002000ae
:100bcc000040880041003700cdc2a800a00f2000d3
:100bdc00d1000700cdc2a900c4e2a800cde2a80054
:100bec00d462a9000208a800300020000040880050
:100bfc003600370003c8bf00ee4f500002003a0029
:100c0c00cc22a800d482a900318020009140780029
:100c1c0080c2b30080cf500002003a00cde2a900a0
:100c2c00d462a8003180200091407800c0c4b30089
:100c3c0080cf500001003a00c4e2a90031802000ae
:100c4c0091407800e0c4b30080cf500001003a001e
:100c5c00cda2a900318020009140780020c5b300be
:100c6c0080cf500018003a00d522a900d502a80068
:100c7c00cd82a900cc22a900d482a8000208a90028
:100c8c000368ef0040002000004088000f00370090
:100c9c0080bb2000a0000700c542a900cc82a9009f
:100cac00803e20009c000700cc82a8000028ef00aa
:100cbc0000000000050037000000000003003700b2
:100ccc000000000001003700000000000080fa0066
:100cdc00000006000000fa00e0408000e20f500027
:100cec001c003200e20f500005003e000000e00046
:100cfc0008003200e10f50000e00320044003700b3
:100d0c00e30f500029003200e40f50002f00320096
:100d1c003f003700c482a900cd82a800d522a800cc
:100d2c00d502a800d4e2a80010002000e040880002
:100d3c003700370091168000000220000080600010
:100d4c000000e00031003a0020002000e040880064
:100d5c002f003700c482a800cdc2a800cda2a800e5
:100d6c00a00f20006c000700cdc2a900c4e2a800af
:100d7c00cc22a800d462a90000f421006600070070
:100d8c00cc22a900d462a8004019210062000700ff
:100d9c00cde2a800d482a90080b521005e00070036
:100dac0030002000e040880019003700c4e2a900a0
:100dbc0012ff0700d482a80080bb20005600070059
:100dcc0040002000e040880011003700cde2a9006f
:100ddc00cd82a900d522a900d502a900d4e2a90090
:100dec00cda2a900007721004b000700cc82a900fe
:100dfc00803e200048000700cc82a800e0fe0700df
:100e0c001c28ef000000000001003700000000006b
:100e1c000080fa00000006000000fa00314080005b
:100e2c00703e2000808f50000e0036000628ef0028
:100e3c00404080000000e80040408800b040800046
:100e4c000000e800b04088001040800061006000a5
:100e5c000000e0000300320003c8bf000040e800bf
:100e6c0003e8b70041408000b0032000808f5000a1
:100e7c00040036000828ef00504080000000e80015
:100e8c005040880051408000b0032000808f5000fb
:100e9c00010036000a28ef00b1408000200320003a
:100eac00808f5000010036001628ef000080fa00f9
:100ebc00000006000400fa00004f780011079800ab
:100ecc001e80fb0080004000e0812000008040007c
:100edc009e009000010878000080fa0000000600d7
:100eec000200fa00004f78001e80fb0080004000da
:100efc00e081200000804000100078000000e0003d
:100f0c0002003a0010c0b300010037000040eb00b3
:100f1c000080fa00000006000400fa001007980098
:100f2c009e009000010f78009e00780020c0b30056
:100f3c00e0ff07000000000020c0b300e8ff07003e
:100f4c000004e000fcff32000080fa000000060004
:100f5c000000fa00d0408000e10f50001400320075
:100f6c00e10f500005003900e20f5000260032005e
:100f7c00e30f50002b0032003a003700c482a90066
:100f8c00cd82a800d522a800d502a800d4e2a800e2
:100f9c009116800000022000008060000000e0003c
:100fac002f003a0010002000d04088002d003700a0
:100fbc00c482a800cdc2a800cda2a800a00f20001a
:100fcc00d5ff0700cdc2a900c4e2a800cc22a8001e
:100fdc00d462a90000f42100cfff0700cc22a900a5
:100fec00d462a80040192100cbff0700cde2a80075
:100ffc00d482a90080b52100c7ff07002000200083
:10100c00d040880017003700c4e2a900d482a800a1
:10101c0080bb2000c0ff070030002000d0408800bb
:10102c0010003700cde2a900cd82a900d522a9007d
:10103c00d502a900d4e2a900cda2a9000077210015
:10104c00b5ff0700cc82a900803e2000b2ff07004c
:10105c00cc82a8001a28ef00000000000100370025
:10106c00000000000080fa00000006000000fa00fa
:10107c006e00070090168000610060000000e00028
:10108c0002003a001828ef00160037009016800076
:10109c00620060000000e00003003a001000200035
:1010ac00c04088000f0037005016800068006000b8
:1010bc000000e00003003a0020002000c04088003f
:1010cc000800370050168000640060000000e0004b
:1010dc0004003a0030002000c040880001003700b6
:1010ec00000000004cff0700c04080000000e00042
:1010fc0006003a00c502a900c462a800c442a800b8
:10110c00d442a80092ff0700f6ff3700c0408000d1
:10111c00e10f500006003a00c502a800c462a90005
:10112c00c442a800d442a800eafe0700edff370035
:10113c00c0408000e20f500006003a00c502a80033
:10114c00c462a800c442a900d442a80078fe0700db
:10115c00e4ff3700c0408000e30f5000e0ff3a008e
:10116c00c502a800c462a800c442a800d442a900c9
:08117c008cfd0700dbff3700ca
:020000040000fa
:101184001208000004000000000000001a0800001b
:1011940002000000000000001c0800000200000023
:1011a400000000000008000006000000000000002d
:1011b4002408000002000000000000001e080000d7
:1011c4000600000000000000060800000600000001
:1011d40000000000160800000400000000000000e9
:1011e4000c080000060000000000000000000000e1
:020000040000fa
:1011f4000000fa00c01120002016880010202000f2
:10120400001688000001200060168800d0c6200067
:1012140040168800c0012000a0168800300220007b
:1012240080168800e0ff2100601988000080fa0021
:10123400000006000000fa0005000700ecff0700ac
:1012440008000700bcfc07000080fa00000006004c
:101254000000fa0000002300203a88000080fa0011
:10126400000006000000fa003005800000c0a00065
:1012740000d0a10000e0a100300588000080fa0041
:041284000000060060
:020000040000fa
:020000040001f9
:0457f8009fe8000026
:020000040000fa
:020000040001f9
:0457fc007f3e0000ec
:00000001FF
