:020000040000fa
:080000000002040000000000f2
:020000040000fa
:100008009a0200009a0200009a0200009a02000078
:100018009a0200009a0200009a0200009a02000068
:100028009a0200009a0200009a0200009a02000058
:100038009a0200009a0200009a020000c002000022
:100048009a0200009a0200009a0200009a02000038
:100058009a0200009a0200009a0200009a02000028
:100068009a0200009a0200009a0200009a02000018
:100078009a0200009a0200009a0200009a02000008
:100088009a0200009a0200009a0200009a020000f8
:100098009a0200009a0200009a0200009a020000e8
:1000a8009a0200009a0200009a0200009a020000d8
:1000b8009a0200009a0200009a0200009a020000c8
:1000c8009a0200009a0200009a0200009a020000b8
:1000d8009a0200009a0200009a0200009a020000a8
:1000e8009a0200009a0200009a0200009a02000098
:1000f8009a0200009a0200009a0200009a02000088
:100108009a0200009a0200009a0200009a02000077
:100118009a0200009a0200009a0200009a02000067
:100128009a0200009a0200009a0200009a02000057
:100138009a0200009a0200009a0200009a02000047
:100148009a0200009a0200009a0200009a02000037
:100158009a0200009a0200009a0200009a02000027
:100168009a0200009a0200009a0200009a02000017
:100178009a0200009a0200009a0200009a02000007
:100188009a0200009a0200009a0200009a020000f7
:100198009a0200009a0200009a0200009a020000e7
:1001a8009a0200009a0200009a0200009a020000d7
:1001b8009a0200009a0200009a0200009a020000c7
:1001c8009a0200009a0200009a0200009a020000b7
:1001d8009a0200009a0200009a0200009a020000a7
:1001e8009a0200009a0200009a0200009a02000097
:0801f8009a0200009a020000c7
:020000040000fa
:100208009a0200009a0200009a0200009a02000076
:100218009a0200009a0200009a0200009a02000066
:100228009a0200009a0200009a0200009a02000056
:100238009a0200009a0200009a020000c002000020
:100248009a0200009a0200009a0200009a02000036
:100258009a0200009a0200009a0200009a02000026
:100268009a0200009a0200009a0200009a02000016
:100278009a0200009a0200009a0200009a02000006
:100288009a0200009a0200009a0200009a020000f6
:100298009a0200009a0200009a0200009a020000e6
:1002a8009a0200009a0200009a0200009a020000d6
:1002b8009a0200009a0200009a0200009a020000c6
:1002c8009a0200009a0200009a0200009a020000b6
:1002d8009a0200009a0200009a0200009a020000a6
:1002e8009a0200009a0200009a0200009a02000096
:1002f8009a0200009a0200009a0200009a02000086
:100308009a0200009a0200009a0200009a02000075
:100318009a0200009a0200009a0200009a02000065
:100328009a0200009a0200009a0200009a02000055
:100338009a0200009a0200009a0200009a02000045
:100348009a0200009a0200009a0200009a02000035
:100358009a0200009a0200009a0200009a02000025
:100368009a0200009a0200009a0200009a02000015
:100378009a0200009a0200009a0200009a02000005
:100388009a0200009a0200009a0200009a020000f5
:100398009a0200009a0200009a0200009a020000e5
:1003a8009a0200009a0200009a0200009a020000d5
:1003b8009a0200009a0200009a0200009a020000c5
:1003c8009a0200009a0200009a0200009a020000b5
:1003d8009a0200009a0200009a0200009a020000a5
:1003e8009a0200009a0200009a0200009a02000095
:0803f8009a0200009a020000c5
:020000040000fa
:100400004f8120000e7f22000e01880000000000b6
:10041000000020000000e000020032000001200087
:10042000200288000c000700005820000100200076
:1004300011000700000020000000e0000200320070
:100440000000020000000000ea05020000000000b9
:100450000040da000000fe004440a9000000200037
:100460000000e0000300320000002000a00188002e
:100470004440a80000000600910188008000780038
:100480000000eb0015003700e280400032a0b4000d
:100490009101ba00e280400032a0b4009102ba009b
:1004a000e280400032a0b4000002eb00472bde00e7
:1004b000f507b200602ce10004003a000059eb009f
:1004c0008301e900fdff3e00040037006128e100e0
:1004d000010032000082eb00040007001101ba00a5
:1004e0000200e000e8ff3a00000006003159ba00bf
:1004f0008301e9000c0032002159ba008301e900b0
:10050000080032000400e00003003a00e2804000ee
:1005100032a0b400f5ff370011d9ba008301e90019
:10052000faff3a008100e800e180400032a0b40008
:0c053000000006000040da000000fe00a1
:020000040000fa
:10053c000000fa0000002800800888000621ef0067
:10054c0000fa20006008880084e0a90094e0a8006c
:10055c00208120008040eb00014878000080fa00e8
:10056c00000006000000fa00f1ff07000080fa000e
:10057c0000000600809fbe000000fa0000408000d2
:10058c000000e80000408800604080000000e000af
:10059c0003003200604080000000e90060408800e9
:1005ac00704080000000e0000300320070408000ca
:1005bc000000e90070408800804080000000e000ee
:1005cc0003003200804080000000e9008040880079
:1005dc0030812000104078008040e80030812000fd
:1005ec00014878002081200011c0b3000148780038
:1005fc0084e0a9000080fa004f00be000040060015
:10060c000200fa00000f78009e0078006108880054
:10061c00208120008040eb00014878000080fa0027
:10062c00000006000200fa00000f78001e0078009f
:10063c00f3ff07000080fa00000006000000fa003b
:10064c00600880000080fa00000006000000fa003c
:10065c00faff07000080fa00000006000200fa0012
:10066c00000f78009e00780031088800208120005f
:10067c008040eb00014878000080fa000000060082
:10068c000200fa00000f78001e007800f3ff07004c
:10069c000080fa00000006000000fa00300880001c
:1006ac000080fa00000006000000fa00faff0700c4
:1006bc000080fa00000006000000fa000080fa003a
:1006cc00000006000000fa00208120008040eb00b2
:1006dc000148780094e0a80011e1a8000080fa001d
:1006ec00000006000000fa00f6ff07000080fa0088
:1006fc00000006000000fa0011e1a90094e0a90036
:10070c000080fa00000006000000fa00f9ff070064
:10071c000080fa00000006000200fa002081200090
:10072c00104f78001e4078000004e00003003200f7
:10073c00208120008040eb00014878001e407800aa
:10074c000080fa00000006000000fa00f2ff07002b
:10075c000080fa00000006000000fa003081200042
:10076c00104078000080fa00000006000000fa003b
:10077c00f9ff07000080fa00000006000000fa00f4
:10078c00308120008040eb00014878000080fa00a6
:10079c00000006000000fa00f8ff07000080fa00d5
:1007ac00000006000200fa000000eb00000f7800c9
:1007bc000000eb00000f78001500370060002000ef
:1007cc003040880018000700f00020007d00070072
:1007dc00a00020003040880013000700f00020002b
:1007ec007800070090002000304088000e000700c1
:1007fc00f0002000730007005000200030408800fb
:10080c0009000700f00020006e0007001e0fe80032
:10081c00700220009e007800808f5000e7ff3400ab
:10082c000080fa00000006000000fa003040800052
:10083c00614060000080fb00610060004600dd004c
:10084c00a2168000f1fb2f008100610001007000f6
:10085c00a0168800304080000000d100614060008c
:10086c000080fb00610060004900dd006216800022
:10087c00f1df2f008100610001007000601688001c
:10088c00304080004200de00614060000080fb00d0
:10089c00610060004800dd0062168000f1ef2f005f
:1008ac0081006100010070006016880030408000fb
:1008bc004300de00614060000080fb0061006000ce
:1008cc004700dd0062168000f1f72f008100610007
:1008dc0001007000601688000080fa00000006001d
:1008ec000000fa0001408000703e2000808f500014
:1008fc00070036000028ef00104080000000e800e0
:10090c0010408800504080000000e80050408800f3
:10091c0011408000b0032000808f5000040036008e
:10092c000228ef00204080000000e80020408800f2
:10093c0021408000b0032000808f50000100360061
:10094c000428ef005140800020032000808f5000cd
:10095c00010036000a28ef000080fa0000000600b3
:10096c000400fa00004f7800110798001e80fb006d
:10097c0080004000c0802000008040009e0090005d
:10098c00010878000080fa00000006000200fa005e
:10099c00004f78001e80fb0080004000c0802000cb
:1009ac0000804000100078000000e00002003a00d7
:1009bc0010c0b300010037000040eb000080fa00cb
:1009cc00000006000400fa00100798009e0090003a
:1009dc00010f78009e00780020c0b300e0ff0700f4
:1009ec000000000020c0b300e8ff07000004e00096
:1009fc00fcff32000080fa00000006000000fa0044
:100a0c0040408000e10f500012003200e10f500016
:100a1c0005003900e20f50001a003200e30f5000bd
:100a2c002b00320031003700cdc2a800c4e2a80070
:100a3c00c482a80091168000000220000080600093
:100a4c000000e0002600320010002000404088002a
:100a5c0026003700c542a800cda2a800c482a90078
:100a6c00a00f2000d7ff0700cd82a800d482a800d9
:100a7c00a0002000d3ff0700200020004040880089
:100a8c001a00370051168000000220000080600020
:100a9c000000e00014003a00d482a900cdc2a900e5
:100aac00c4e2a900c542a900cda2a900cd82a9002b
:100abc00d522a80040192100c2ff0700d522a900a9
:100acc00d462a800300020004040880007003700a6
:100adc0034ff07000828ef00000000000300370077
:100aec000000000001003700000000000080fa0048
:040afc0000000600f0
:020000040000fa
:100b00000c080000060000000000000000080000c3
:100b100006000000000000000608000002000000bf
:100b200000000000080800000200000000000000b3
:100b30001208000002000000000000000a08000087
:0c0b4000020000000000000000000000a7
:020000040000fa
:100b4c000000fa00c422ef00f030200000168800ec
:100b5c00cc22ef00f0c7280040168800d422ef000a
:100b6c00701a20008016880000c0210060198800cf
:100b7c000080fa00000006000000fa0005000700e3
:100b8c00efff07000800070069fe07000080fa006d
:100b9c00000006000000fa0000002300203a880044
:100bac000080fa00000006000000fa00300580000a
:100bbc0000c0a00000d0a10000e0a100300588001a
:100bcc000080fa00000006000000fa00eaff0700af
:0c0bdc0043ff070089ff0700fdff370002
:020000040000fa
:020000040001f9
:0457f8009fe8000026
:020000040000fa
:020000040001f9
:0457fc007f3e0000ec
:00000001FF
