:020000001328C3
:100008007E14803120007F08F0008B190B1C0E280D
:1000180064200B1070082000FF007E1009001428CF
:10002800F4017E102000182872208B170B17740318
:10003800031D1B281030F2009430F100F10B222828
:10004800F20B2228000020000C1A8C1E48282030B1
:10005800F2002930F100F10B2F28F20B2F28003283
:1000680020008C1E482822008E143D30F300E13019
:10007800F2007A30F100F10B3F28F20B3F28F30B26
:100088003F28003222008E10F4011B2822008C0128
:100098003F3021008C00073023008C0024008C01A5
:1000A80022008E013D3021008E000D3023008E008D
:1000B8002100951722009D01270011168B150800B5
:1000C8002700111E0800131E0800F401F40A131279
:1000D80008007A30210099009A0108006D204A2012
:0200E80008000E
:020000040001F9
:04000E00A4FFFFDF6D
:00000001FF
