:020000001328C3
:100008007E14803120007F08F0008B190B1C0E280D
:100018004B200B1070082000FF007E1009001428E8
:10002800F4017E102000322822008C013F3021008C
:100038008C00073023008C0024008C0122008E01E4
:100048003D3021008E000D3023008E0021009517D1
:1000580022009D01270011168B1508005D208B17C3
:100068000B177403031D352822008E143D30F3004E
:10007800E130F2007A30F100F10B4028F20B402811
:10008800F30B4028003222008E10F4013528270097
:10009800111E0800131E080020008C1E5528F401AC
:1000A800F40A2700131208007A30210099009A01F7
:0800B800080058201820080080
:020000040001F9
:04000E00A4FFFFDF6D
:00000001FF
